{
  "_format": "hh-sol-artifact-1",
  "contractName": "L1ERC20Bridge",
  "sourceName": "cache/solpp-generated-contracts/bridge/L1ERC20Bridge.sol",
  "abi": [
    {
      "inputs": [
        {
          "internalType": "contract IMailbox",
          "name": "_mailbox",
          "type": "address"
        },
        {
          "internalType": "contract IAllowList",
          "name": "_allowList",
          "type": "address"
        }
      ],
      "stateMutability": "nonpayable",
      "type": "constructor"
    },
    {
      "anonymous": false,
      "inputs": [
        {
          "indexed": true,
          "internalType": "address",
          "name": "to",
          "type": "address"
        },
        {
          "indexed": true,
          "internalType": "address",
          "name": "l1Token",
          "type": "address"
        },
        {
          "indexed": false,
          "internalType": "uint256",
          "name": "amount",
          "type": "uint256"
        }
      ],
      "name": "ClaimedFailedDeposit",
      "type": "event"
    },
    {
      "anonymous": false,
      "inputs": [
        {
          "indexed": true,
          "internalType": "address",
          "name": "from",
          "type": "address"
        },
        {
          "indexed": true,
          "internalType": "address",
          "name": "to",
          "type": "address"
        },
        {
          "indexed": true,
          "internalType": "address",
          "name": "l1Token",
          "type": "address"
        },
        {
          "indexed": false,
          "internalType": "uint256",
          "name": "amount",
          "type": "uint256"
        }
      ],
      "name": "DepositInitiated",
      "type": "event"
    },
    {
      "anonymous": false,
      "inputs": [
        {
          "indexed": true,
          "internalType": "address",
          "name": "to",
          "type": "address"
        },
        {
          "indexed": true,
          "internalType": "address",
          "name": "l1Token",
          "type": "address"
        },
        {
          "indexed": false,
          "internalType": "uint256",
          "name": "amount",
          "type": "uint256"
        }
      ],
      "name": "WithdrawalFinalized",
      "type": "event"
    },
    {
      "inputs": [
        {
          "internalType": "address",
          "name": "_depositSender",
          "type": "address"
        },
        {
          "internalType": "address",
          "name": "_l1Token",
          "type": "address"
        },
        {
          "internalType": "bytes32",
          "name": "_l2TxHash",
          "type": "bytes32"
        },
        {
          "internalType": "uint256",
          "name": "_l2BlockNumber",
          "type": "uint256"
        },
        {
          "internalType": "uint256",
          "name": "_l2MessageIndex",
          "type": "uint256"
        },
        {
          "internalType": "uint16",
          "name": "_l2TxNumberInBlock",
          "type": "uint16"
        },
        {
          "internalType": "bytes32[]",
          "name": "_merkleProof",
          "type": "bytes32[]"
        }
      ],
      "name": "claimFailedDeposit",
      "outputs": [],
      "stateMutability": "nonpayable",
      "type": "function"
    },
    {
      "inputs": [
        {
          "internalType": "address",
          "name": "_l2Receiver",
          "type": "address"
        },
        {
          "internalType": "address",
          "name": "_l1Token",
          "type": "address"
        },
        {
          "internalType": "uint256",
          "name": "_amount",
          "type": "uint256"
        }
      ],
      "name": "deposit",
      "outputs": [
        {
          "internalType": "bytes32",
          "name": "txHash",
          "type": "bytes32"
        }
      ],
      "stateMutability": "payable",
      "type": "function"
    },
    {
      "inputs": [
        {
          "internalType": "uint256",
          "name": "_l2BlockNumber",
          "type": "uint256"
        },
        {
          "internalType": "uint256",
          "name": "_l2MessageIndex",
          "type": "uint256"
        },
        {
          "internalType": "uint16",
          "name": "_l2TxNumberInBlock",
          "type": "uint16"
        },
        {
          "internalType": "bytes",
          "name": "_message",
          "type": "bytes"
        },
        {
          "internalType": "bytes32[]",
          "name": "_merkleProof",
          "type": "bytes32[]"
        }
      ],
      "name": "finalizeWithdrawal",
      "outputs": [],
      "stateMutability": "nonpayable",
      "type": "function"
    },
    {
      "inputs": [
        {
          "internalType": "bytes[]",
          "name": "_factoryDeps",
          "type": "bytes[]"
        },
        {
          "internalType": "address",
          "name": "_l2TokenFactory",
          "type": "address"
        },
        {
          "internalType": "address",
          "name": "_governor",
          "type": "address"
        }
      ],
      "name": "initialize",
      "outputs": [],
      "stateMutability": "nonpayable",
      "type": "function"
    },
    {
      "inputs": [
        {
          "internalType": "uint256",
          "name": "",
          "type": "uint256"
        },
        {
          "internalType": "uint256",
          "name": "",
          "type": "uint256"
        }
      ],
      "name": "isWithdrawalFinalized",
      "outputs": [
        {
          "internalType": "bool",
          "name": "",
          "type": "bool"
        }
      ],
      "stateMutability": "view",
      "type": "function"
    },
    {
      "inputs": [],
      "name": "l2Bridge",
      "outputs": [
        {
          "internalType": "address",
          "name": "",
          "type": "address"
        }
      ],
      "stateMutability": "view",
      "type": "function"
    },
    {
      "inputs": [],
      "name": "l2ProxyTokenBytecodeHash",
      "outputs": [
        {
          "internalType": "bytes32",
          "name": "",
          "type": "bytes32"
        }
      ],
      "stateMutability": "view",
      "type": "function"
    },
    {
      "inputs": [
        {
          "internalType": "address",
          "name": "_l1Token",
          "type": "address"
        }
      ],
      "name": "l2TokenAddress",
      "outputs": [
        {
          "internalType": "address",
          "name": "",
          "type": "address"
        }
      ],
      "stateMutability": "view",
      "type": "function"
    },
    {
      "inputs": [],
      "name": "l2TokenFactory",
      "outputs": [
        {
          "internalType": "address",
          "name": "",
          "type": "address"
        }
      ],
      "stateMutability": "view",
      "type": "function"
    }
  ],
  "bytecode": "0x60c06040523480156200001157600080fd5b5060405162001ff138038062001ff18339810160408190526200003491620000cf565b6200003e62000056565b6001600160a01b0391821660a052166080526200010e565b7f8e94fed44239eb2314ab7a406345e6c5a8f0ccedf3b600de3d004e672c33abf4805460019091558015620000b65760405162461bcd60e51b815260206004820152600260248201526118a160f11b604482015260640160405180910390fd5b50565b6001600160a01b0381168114620000b657600080fd5b60008060408385031215620000e357600080fd5b8251620000f081620000b9565b60208401519092506200010381620000b9565b809150509250929050565b60805160a051611e9a62000157600039600081816103c80152818161069a015281816109f30152610c0b015260008181610236015281816105780152610ae10152611e9a6000f3fe6080604052600436106100865760003560e01c80638340f549116100595780638340f5491461013a578063ae1f6aaf1461015b578063eddd5e8214610193578063f5f15168146101b3578063f76be088146101d357600080fd5b806311a2ccc11461008b57806319fa7f62146100ad5780634bed8212146100cd5780635e2289171461011a575b600080fd5b34801561009757600080fd5b506100ab6100a6366004611680565b6101e9565b005b3480156100b957600080fd5b506100ab6100c8366004611759565b610534565b3480156100d957600080fd5b506101056100e83660046117eb565b600060208181529281526040808220909352908152205460ff1681565b60405190151581526020015b60405180910390f35b34801561012657600080fd5b506100ab610135366004611854565b6108aa565b61014d61014836600461198e565b610a9a565b604051908152602001610111565b34801561016757600080fd5b5060025461017b906001600160a01b031681565b6040516001600160a01b039091168152602001610111565b34801561019f57600080fd5b5060035461017b906001600160a01b031681565b3480156101bf57600080fd5b5061017b6101ce3660046119ca565b610d5d565b3480156101df57600080fd5b5061014d60045481565b600080516020611e4583398151915254600181146102225760405162461bcd60e51b8152600401610219906119e5565b60405180910390fd5b6002600080516020611e45833981519152557f000000000000000000000000000000000000000000000000000000000000000060006102646004823681611a01565b61026d91611a2b565b60405163b700961360e01b81529091506001600160a01b0383169063b7009613906102a090339030908690600401611a5b565b602060405180830381865afa1580156102bd573d6000803e3d6000fd5b505050506040513d601f19601f820116820180604052508101906102e19190611a88565b6102fd5760405162461bcd60e51b815260040161021990611aaa565b506000898152602081815260408083208b845290915290205460ff161561034b5760405162461bcd60e51b8152602060048201526002602482015261707760f01b6044820152606401610219565b6040805160608101825261ffff891681526002546001600160a01b03166020808301919091528251601f890182900482028101820184528881526000938301918a908a9081908401838280828437600092018290525093909452505060408301519293509182915081906103be90610dcc565b92509250925060007f00000000000000000000000000000000000000000000000000000000000000006001600160a01b031663e4948f438f8f888d8d6040518663ffffffff1660e01b815260040161041a959493929190611b48565b602060405180830381865afa158015610437573d6000803e3d6000fd5b505050506040513d601f19601f8201168201806040525081019061045b9190611a88565b90508061048f5760405162461bcd60e51b81526020600482015260026024820152616e7160f01b6044820152606401610219565b5060008d8152602081815260408083208f84529091529020805460ff191660011790556104c66001600160a01b0383168483610e75565b816001600160a01b0316836001600160a01b03167fac1b18083978656d557d6e91c88203585cfda1031bdb14538327121ef140d3838360405161050b91815260200190565b60405180910390a350505050506001600080516020611e45833981519152555050505050505050565b600080516020611e4583398151915254600181146105645760405162461bcd60e51b8152600401610219906119e5565b6002600080516020611e45833981519152557f000000000000000000000000000000000000000000000000000000000000000060006105a66004823681611a01565b6105af91611a2b565b60405163b700961360e01b81529091506001600160a01b0383169063b7009613906105e290339030908690600401611a5b565b602060405180830381865afa1580156105ff573d6000803e3d6000fd5b505050506040513d601f19601f820116820180604052508101906106239190611a88565b61063f5760405162461bcd60e51b815260040161021990611aaa565b5060006040518060c00160405280600060ff1681526020016001151581526020018761ffff16815260200161800060016106799190611bc7565b6001600160a01b031681526020018a81526020016000801b815250905060007f00000000000000000000000000000000000000000000000000000000000000006001600160a01b031663263b7f8e8a8a858a8a6040518663ffffffff1660e01b81526004016106ec959493929190611bee565b602060405180830381865afa158015610709573d6000803e3d6000fd5b505050506040513d601f19601f8201168201806040525081019061072d9190611a88565b9050806107615760405162461bcd60e51b81526020600482015260026024820152613cb760f11b6044820152606401610219565b6001600160a01b03808d166000908152600160209081526040808320938f1683529281528282208d835290522054806107c15760405162461bcd60e51b8152602060048201526002602482015261793160f01b6044820152606401610219565b600160008e6001600160a01b03166001600160a01b0316815260200190815260200160002060008d6001600160a01b03166001600160a01b0316815260200190815260200160002060008c81526020019081526020016000206000905561083c8d828e6001600160a01b0316610e759092919063ffffffff16565b8b6001600160a01b03168d6001600160a01b03167fbe066dc591f4a444f75176d387c3e6c775e5706d9ea9a91d11eb49030c66cf608360405161088191815260200190565b60405180910390a3505050506001600080516020611e4583398151915255505050505050505050565b6108b2610edd565b82516002146108e85760405162461bcd60e51b81526020600482015260026024820152616d6b60f01b6044820152606401610219565b61090b836001815181106108fe576108fe611c5a565b6020026020010151610f29565b6004819055600380546001600160a01b0319166001600160a01b0385811691909117909155604080513060208201529081019290925282166060820152600090819060800160405160208183030381529060405290506000610979866000815181106108fe576108fe611c5a565b9050600083828460405160240161099293929190611c70565b60408051601f19818403018152919052602080820180516001600160e01b0316633cda335160e01b1790528451908501209091506109d590309086908590611062565b600280546001600160a01b0319166001600160a01b039283161790557f00000000000000000000000000000000000000000000000000000000000000001663725ad850610a256180006006611bc7565b600084622000008c6040518663ffffffff1660e01b8152600401610a4d959493929190611c98565b6020604051808303816000875af1158015610a6c573d6000803e3d6000fd5b505050506040513d601f19601f82011682018060405250810190610a909190611d27565b5050505050505050565b600080516020611e458339815191525460009060018114610acd5760405162461bcd60e51b8152600401610219906119e5565b6002600080516020611e45833981519152557f00000000000000000000000000000000000000000000000000000000000000006000610b0f6004823681611a01565b610b1891611a2b565b60405163b700961360e01b81529091506001600160a01b0383169063b700961390610b4b90339030908690600401611a5b565b602060405180830381865afa158015610b68573d6000803e3d6000fd5b505050506040513d601f19601f82011682018060405250810190610b8c9190611a88565b610ba85760405162461bcd60e51b815260040161021990611aaa565b506000610bb63387876110d2565b905060008111610bed5760405162461bcd60e51b81526020600482015260026024820152610c5560f21b6044820152606401610219565b6000610bfb338989856111d9565b6002549091506001600160a01b037f000000000000000000000000000000000000000000000000000000000000000081169163725ad850913491166000856220000082604051908082528060200260200182016040528015610c7157816020015b6060815260200190600190039081610c5c5790505b506040518763ffffffff1660e01b8152600401610c92959493929190611c98565b60206040518083038185885af1158015610cb0573d6000803e3d6000fd5b50505050506040513d601f19601f82011682018060405250810190610cd59190611d27565b3360008181526001602090815260408083206001600160a01b038d8116808652918452828520878652845293829020889055905187815294995093918c1692917f7abe8fd2d210cf1e5d2cb3e277afd776d77269c8869b02c39f0bb542de0fdba1910160405180910390a45050506001600080516020611e4583398151915255509392505050565b600354604080516001600160a01b0390921660208301528181015260006060820181905290819060800160408051601f1981840301815291905280516020909101206002546004549192506001600160a01b0380861692610dc49290911690839085611062565b949350505050565b60008060008351604c14610e075760405162461bcd60e51b81526020600482015260026024820152616b6b60f01b6044820152606401610219565b600484810151906311a2ccc160e01b6001600160e01b031960e084901b1614610e575760405162461bcd60e51b81526020600482015260026024820152611b9d60f21b6044820152606401610219565b60149501948501516028860151604890960151909690945092505050565b6040516001600160a01b038316602482015260448101829052610ed890849063a9059cbb60e01b906064015b60408051601f198184030181529190526020810180516001600160e01b03166001600160e01b031990931692909217909152611235565b505050565b600080516020611e45833981519152805460019091558015610f265760405162461bcd60e51b815260206004820152600260248201526118a160f11b6044820152606401610219565b50565b600060208251610f399190611d56565b15610f6b5760405162461bcd60e51b8152602060048201526002602482015261706f60f01b6044820152606401610219565b600060208351610f7b9190611d6a565b9050620100008110610fb45760405162461bcd60e51b8152602060048201526002602482015261070760f41b6044820152606401610219565b610fbf600282611d56565b600114610ff35760405162461bcd60e51b8152602060048201526002602482015261383960f11b6044820152606401610219565b6002836040516110039190611d7e565b602060405180830381855afa158015611020573d6000803e3d6000fd5b5050506040513d601f19601f820116820180604052508101906110439190611d27565b60e09190911b6001600160e01b039190911617600160f81b1792915050565b604080517f2020dba91b30cc0006188af794c2fb30dd8520db7e2c088b7fc7c103c00ca4946020808301919091526001600160a01b0396909616818301526060810194909452608084019290925260a0808401919091528151808403909101815260c09092019052805191012090565b6040516370a0823160e01b815230600482015260009081906001600160a01b038516906370a0823190602401602060405180830381865afa15801561111b573d6000803e3d6000fd5b505050506040513d601f19601f8201168201806040525081019061113f9190611d27565b90506111566001600160a01b038516863086611307565b6040516370a0823160e01b81523060048201526000906001600160a01b038616906370a0823190602401602060405180830381865afa15801561119d573d6000803e3d6000fd5b505050506040513d601f19601f820116820180604052508101906111c19190611d27565b90506111cd8282611d9a565b925050505b9392505050565b606060006111e684611345565b90508585858584604051602401611201959493929190611db3565b60408051601f198184030181529190526020810180516001600160e01b03166333f9ebdf60e21b1790529695505050505050565b600061128a826040518060400160405280602081526020017f5361666545524332303a206c6f772d6c6576656c2063616c6c206661696c6564815250856001600160a01b03166115099092919063ffffffff16565b805190915015610ed857808060200190518101906112a89190611a88565b610ed85760405162461bcd60e51b815260206004820152602a60248201527f5361666545524332303a204552433230206f7065726174696f6e20646964206e6044820152691bdd081cdd58d8d9595960b21b6064820152608401610219565b6040516001600160a01b038085166024830152831660448201526064810182905261133f9085906323b872dd60e01b90608401610ea1565b50505050565b60408051600481526024810182526020810180516001600160e01b03166306fdde0360e01b17905290516060916000916001600160a01b0385169161138991611d7e565b600060405180830381855afa9150503d80600081146113c4576040519150601f19603f3d011682016040523d82523d6000602084013e6113c9565b606091505b5060408051600481526024810182526020810180516001600160e01b03166395d89b4160e01b1790529051919350600092506001600160a01b038616916114109190611d7e565b600060405180830381855afa9150503d806000811461144b576040519150601f19603f3d011682016040523d82523d6000602084013e611450565b606091505b5060408051600481526024810182526020810180516001600160e01b031663313ce56760e01b1790529051919350600092506001600160a01b038716916114979190611d7e565b600060405180830381855afa9150503d80600081146114d2576040519150601f19603f3d011682016040523d82523d6000602084013e6114d7565b606091505b509150508282826040516020016114f093929190611dee565b6040516020818303038152906040529350505050919050565b6060610dc48484600085856001600160a01b0385163b61156b5760405162461bcd60e51b815260206004820152601d60248201527f416464726573733a2063616c6c20746f206e6f6e2d636f6e74726163740000006044820152606401610219565b600080866001600160a01b031685876040516115879190611d7e565b60006040518083038185875af1925050503d80600081146115c4576040519150601f19603f3d011682016040523d82523d6000602084013e6115c9565b606091505b50915091506115d98282866115e4565b979650505050505050565b606083156115f35750816111d2565b8251156116035782518084602001fd5b8160405162461bcd60e51b81526004016102199190611e31565b803561ffff8116811461162f57600080fd5b919050565b60008083601f84011261164657600080fd5b50813567ffffffffffffffff81111561165e57600080fd5b6020830191508360208260051b850101111561167957600080fd5b9250929050565b600080600080600080600060a0888a03121561169b57600080fd5b87359650602088013595506116b26040890161161d565b9450606088013567ffffffffffffffff808211156116cf57600080fd5b818a0191508a601f8301126116e357600080fd5b8135818111156116f257600080fd5b8b602082850101111561170457600080fd5b6020830196508095505060808a013591508082111561172257600080fd5b5061172f8a828b01611634565b989b979a50959850939692959293505050565b80356001600160a01b038116811461162f57600080fd5b60008060008060008060008060e0898b03121561177557600080fd5b61177e89611742565b975061178c60208a01611742565b96506040890135955060608901359450608089013593506117af60a08a0161161d565b925060c089013567ffffffffffffffff8111156117cb57600080fd5b6117d78b828c01611634565b999c989b5096995094979396929594505050565b600080604083850312156117fe57600080fd5b50508035926020909101359150565b634e487b7160e01b600052604160045260246000fd5b604051601f8201601f1916810167ffffffffffffffff8111828210171561184c5761184c61180d565b604052919050565b60008060006060848603121561186957600080fd5b833567ffffffffffffffff8082111561188157600080fd5b818601915086601f83011261189557600080fd5b81356020828211156118a9576118a961180d565b8160051b6118b8828201611823565b928352848101820192828101908b8511156118d257600080fd5b83870192505b84831015611963578235868111156118f05760008081fd5b8701603f81018d136119025760008081fd5b848101356040888211156119185761191861180d565b61192a601f8301601f19168801611823565b8281528f8284860101111561193f5760008081fd5b828285018983013760009281018801929092525083525091830191908301906118d8565b9850611973915050888201611742565b95505050505061198560408501611742565b90509250925092565b6000806000606084860312156119a357600080fd5b6119ac84611742565b92506119ba60208501611742565b9150604084013590509250925092565b6000602082840312156119dc57600080fd5b6111d282611742565b602080825260029082015261723160f01b604082015260600190565b60008085851115611a1157600080fd5b83861115611a1e57600080fd5b5050820193919092039150565b6001600160e01b03198135818116916004851015611a535780818660040360031b1b83161692505b505092915050565b6001600160a01b0393841681529190921660208201526001600160e01b0319909116604082015260600190565b600060208284031215611a9a57600080fd5b815180151581146111d257600080fd5b602080825260029082015261373960f11b604082015260600190565b60005b83811015611ae1578181015183820152602001611ac9565b50506000910152565b60008151808452611b02816020860160208601611ac6565b601f01601f19169290920160200192915050565b81835260006001600160fb1b03831115611b2f57600080fd5b8260051b80836020870137939093016020019392505050565b8581528460208201526080604082015261ffff845116608082015260018060a01b0360208501511660a082015260006040850151606060c0840152611b9060e0840182611aea565b90508281036060840152611ba5818587611b16565b98975050505050505050565b634e487b7160e01b600052601160045260246000fd5b6001600160a01b03818116838216019080821115611be757611be7611bb1565b5092915050565b600061012087835286602084015260ff865116604084015260208601511515606084015261ffff604087015116608084015260018060a01b0360608701511660a0840152608086015160c084015260a086015160e084015280610100840152611ba58184018587611b16565b634e487b7160e01b600052603260045260246000fd5b838152826020820152606060408201526000611c8f6060830184611aea565b95945050505050565b60018060a01b038616815260006020868184015260a06040840152611cc060a0840187611aea565b85606085015283810360808501528085518083528383019150838160051b84010184880160005b83811015611d1557601f19868403018552611d03838351611aea565b94870194925090860190600101611ce7565b50909c9b505050505050505050505050565b600060208284031215611d3957600080fd5b5051919050565b634e487b7160e01b600052601260045260246000fd5b600082611d6557611d65611d40565b500690565b600082611d7957611d79611d40565b500490565b60008251611d90818460208701611ac6565b9190910192915050565b81810381811115611dad57611dad611bb1565b92915050565b6001600160a01b0386811682528581166020830152841660408201526060810183905260a0608082018190526000906115d990830184611aea565b606081526000611e016060830186611aea565b8281036020840152611e138186611aea565b90508281036040840152611e278185611aea565b9695505050505050565b6020815260006111d26020830184611aea56fe8e94fed44239eb2314ab7a406345e6c5a8f0ccedf3b600de3d004e672c33abf4a264697066735822122001bd69d966fc38abf902a149f7e14a5997e810f30c873052e042f6ae3e16ef6164736f6c63430008110033",
  "linkReferences": {},
  "deployedLinkReferences": {}
}