{
  "_format": "hh-sol-artifact-1",
  "contractName": "Verifier",
  "sourceName": "cache/solpp-generated-contracts/zksync/Verifier.sol",
  "abi": [
    {
      "inputs": [
        {
          "components": [
            {
              "components": [
                {
                  "internalType": "uint256",
                  "name": "value",
                  "type": "uint256"
                }
              ],
              "internalType": "struct PairingsBn254.Fr",
              "name": "zero",
              "type": "tuple"
            },
            {
              "components": [
                {
                  "internalType": "uint256",
                  "name": "value",
                  "type": "uint256"
                }
              ],
              "internalType": "struct PairingsBn254.Fr",
              "name": "alpha",
              "type": "tuple"
            },
            {
              "components": [
                {
                  "internalType": "uint256",
                  "name": "value",
                  "type": "uint256"
                }
              ],
              "internalType": "struct PairingsBn254.Fr",
              "name": "beta",
              "type": "tuple"
            },
            {
              "components": [
                {
                  "internalType": "uint256",
                  "name": "value",
                  "type": "uint256"
                }
              ],
              "internalType": "struct PairingsBn254.Fr",
              "name": "gamma",
              "type": "tuple"
            },
            {
              "components": [
                {
                  "internalType": "uint256",
                  "name": "value",
                  "type": "uint256"
                }
              ],
              "internalType": "struct PairingsBn254.Fr[9]",
              "name": "alpha_values",
              "type": "tuple[9]"
            },
            {
              "components": [
                {
                  "internalType": "uint256",
                  "name": "value",
                  "type": "uint256"
                }
              ],
              "internalType": "struct PairingsBn254.Fr",
              "name": "eta",
              "type": "tuple"
            },
            {
              "components": [
                {
                  "internalType": "uint256",
                  "name": "value",
                  "type": "uint256"
                }
              ],
              "internalType": "struct PairingsBn254.Fr",
              "name": "beta_lookup",
              "type": "tuple"
            },
            {
              "components": [
                {
                  "internalType": "uint256",
                  "name": "value",
                  "type": "uint256"
                }
              ],
              "internalType": "struct PairingsBn254.Fr",
              "name": "gamma_lookup",
              "type": "tuple"
            },
            {
              "components": [
                {
                  "internalType": "uint256",
                  "name": "value",
                  "type": "uint256"
                }
              ],
              "internalType": "struct PairingsBn254.Fr",
              "name": "beta_plus_one",
              "type": "tuple"
            },
            {
              "components": [
                {
                  "internalType": "uint256",
                  "name": "value",
                  "type": "uint256"
                }
              ],
              "internalType": "struct PairingsBn254.Fr",
              "name": "beta_gamma",
              "type": "tuple"
            },
            {
              "components": [
                {
                  "internalType": "uint256",
                  "name": "value",
                  "type": "uint256"
                }
              ],
              "internalType": "struct PairingsBn254.Fr",
              "name": "v",
              "type": "tuple"
            },
            {
              "components": [
                {
                  "internalType": "uint256",
                  "name": "value",
                  "type": "uint256"
                }
              ],
              "internalType": "struct PairingsBn254.Fr",
              "name": "u",
              "type": "tuple"
            },
            {
              "components": [
                {
                  "internalType": "uint256",
                  "name": "value",
                  "type": "uint256"
                }
              ],
              "internalType": "struct PairingsBn254.Fr",
              "name": "z",
              "type": "tuple"
            },
            {
              "components": [
                {
                  "internalType": "uint256",
                  "name": "value",
                  "type": "uint256"
                }
              ],
              "internalType": "struct PairingsBn254.Fr",
              "name": "z_omega",
              "type": "tuple"
            },
            {
              "components": [
                {
                  "internalType": "uint256",
                  "name": "value",
                  "type": "uint256"
                }
              ],
              "internalType": "struct PairingsBn254.Fr",
              "name": "z_minus_last_omega",
              "type": "tuple"
            },
            {
              "components": [
                {
                  "internalType": "uint256",
                  "name": "value",
                  "type": "uint256"
                }
              ],
              "internalType": "struct PairingsBn254.Fr",
              "name": "l_0_at_z",
              "type": "tuple"
            },
            {
              "components": [
                {
                  "internalType": "uint256",
                  "name": "value",
                  "type": "uint256"
                }
              ],
              "internalType": "struct PairingsBn254.Fr",
              "name": "l_n_minus_one_at_z",
              "type": "tuple"
            },
            {
              "components": [
                {
                  "internalType": "uint256",
                  "name": "value",
                  "type": "uint256"
                }
              ],
              "internalType": "struct PairingsBn254.Fr",
              "name": "t",
              "type": "tuple"
            },
            {
              "components": [
                {
                  "internalType": "uint256",
                  "name": "X",
                  "type": "uint256"
                },
                {
                  "internalType": "uint256",
                  "name": "Y",
                  "type": "uint256"
                }
              ],
              "internalType": "struct PairingsBn254.G1Point",
              "name": "tp",
              "type": "tuple"
            }
          ],
          "internalType": "struct Plonk4VerifierWithAccessToDNext.PartialVerifierState",
          "name": "state",
          "type": "tuple"
        }
      ],
      "name": "compute_powers_of_alpha",
      "outputs": [],
      "stateMutability": "pure",
      "type": "function"
    },
    {
      "inputs": [
        {
          "components": [
            {
              "internalType": "uint256",
              "name": "domain_size",
              "type": "uint256"
            },
            {
              "internalType": "uint256",
              "name": "num_inputs",
              "type": "uint256"
            },
            {
              "components": [
                {
                  "internalType": "uint256",
                  "name": "value",
                  "type": "uint256"
                }
              ],
              "internalType": "struct PairingsBn254.Fr",
              "name": "omega",
              "type": "tuple"
            },
            {
              "components": [
                {
                  "internalType": "uint256",
                  "name": "X",
                  "type": "uint256"
                },
                {
                  "internalType": "uint256",
                  "name": "Y",
                  "type": "uint256"
                }
              ],
              "internalType": "struct PairingsBn254.G1Point[2]",
              "name": "gate_selectors_commitments",
              "type": "tuple[2]"
            },
            {
              "components": [
                {
                  "internalType": "uint256",
                  "name": "X",
                  "type": "uint256"
                },
                {
                  "internalType": "uint256",
                  "name": "Y",
                  "type": "uint256"
                }
              ],
              "internalType": "struct PairingsBn254.G1Point[8]",
              "name": "gate_setup_commitments",
              "type": "tuple[8]"
            },
            {
              "components": [
                {
                  "internalType": "uint256",
                  "name": "X",
                  "type": "uint256"
                },
                {
                  "internalType": "uint256",
                  "name": "Y",
                  "type": "uint256"
                }
              ],
              "internalType": "struct PairingsBn254.G1Point[4]",
              "name": "permutation_commitments",
              "type": "tuple[4]"
            },
            {
              "components": [
                {
                  "internalType": "uint256",
                  "name": "X",
                  "type": "uint256"
                },
                {
                  "internalType": "uint256",
                  "name": "Y",
                  "type": "uint256"
                }
              ],
              "internalType": "struct PairingsBn254.G1Point",
              "name": "lookup_selector_commitment",
              "type": "tuple"
            },
            {
              "components": [
                {
                  "internalType": "uint256",
                  "name": "X",
                  "type": "uint256"
                },
                {
                  "internalType": "uint256",
                  "name": "Y",
                  "type": "uint256"
                }
              ],
              "internalType": "struct PairingsBn254.G1Point[4]",
              "name": "lookup_tables_commitments",
              "type": "tuple[4]"
            },
            {
              "components": [
                {
                  "internalType": "uint256",
                  "name": "X",
                  "type": "uint256"
                },
                {
                  "internalType": "uint256",
                  "name": "Y",
                  "type": "uint256"
                }
              ],
              "internalType": "struct PairingsBn254.G1Point",
              "name": "lookup_table_type_commitment",
              "type": "tuple"
            },
            {
              "components": [
                {
                  "internalType": "uint256",
                  "name": "value",
                  "type": "uint256"
                }
              ],
              "internalType": "struct PairingsBn254.Fr[3]",
              "name": "non_residues",
              "type": "tuple[3]"
            },
            {
              "components": [
                {
                  "internalType": "uint256[2]",
                  "name": "X",
                  "type": "uint256[2]"
                },
                {
                  "internalType": "uint256[2]",
                  "name": "Y",
                  "type": "uint256[2]"
                }
              ],
              "internalType": "struct PairingsBn254.G2Point[2]",
              "name": "g2_elements",
              "type": "tuple[2]"
            }
          ],
          "internalType": "struct VerificationKey",
          "name": "vk",
          "type": "tuple"
        },
        {
          "components": [
            {
              "internalType": "uint256[]",
              "name": "input_values",
              "type": "uint256[]"
            },
            {
              "components": [
                {
                  "internalType": "uint256",
                  "name": "X",
                  "type": "uint256"
                },
                {
                  "internalType": "uint256",
                  "name": "Y",
                  "type": "uint256"
                }
              ],
              "internalType": "struct PairingsBn254.G1Point[4]",
              "name": "state_polys_commitments",
              "type": "tuple[4]"
            },
            {
              "components": [
                {
                  "internalType": "uint256",
                  "name": "X",
                  "type": "uint256"
                },
                {
                  "internalType": "uint256",
                  "name": "Y",
                  "type": "uint256"
                }
              ],
              "internalType": "struct PairingsBn254.G1Point",
              "name": "copy_permutation_grand_product_commitment",
              "type": "tuple"
            },
            {
              "components": [
                {
                  "internalType": "uint256",
                  "name": "X",
                  "type": "uint256"
                },
                {
                  "internalType": "uint256",
                  "name": "Y",
                  "type": "uint256"
                }
              ],
              "internalType": "struct PairingsBn254.G1Point[4]",
              "name": "quotient_poly_parts_commitments",
              "type": "tuple[4]"
            },
            {
              "components": [
                {
                  "internalType": "uint256",
                  "name": "value",
                  "type": "uint256"
                }
              ],
              "internalType": "struct PairingsBn254.Fr[4]",
              "name": "state_polys_openings_at_z",
              "type": "tuple[4]"
            },
            {
              "components": [
                {
                  "internalType": "uint256",
                  "name": "value",
                  "type": "uint256"
                }
              ],
              "internalType": "struct PairingsBn254.Fr[1]",
              "name": "state_polys_openings_at_z_omega",
              "type": "tuple[1]"
            },
            {
              "components": [
                {
                  "internalType": "uint256",
                  "name": "value",
                  "type": "uint256"
                }
              ],
              "internalType": "struct PairingsBn254.Fr[1]",
              "name": "gate_selectors_openings_at_z",
              "type": "tuple[1]"
            },
            {
              "components": [
                {
                  "internalType": "uint256",
                  "name": "value",
                  "type": "uint256"
                }
              ],
              "internalType": "struct PairingsBn254.Fr[3]",
              "name": "copy_permutation_polys_openings_at_z",
              "type": "tuple[3]"
            },
            {
              "components": [
                {
                  "internalType": "uint256",
                  "name": "value",
                  "type": "uint256"
                }
              ],
              "internalType": "struct PairingsBn254.Fr",
              "name": "copy_permutation_grand_product_opening_at_z_omega",
              "type": "tuple"
            },
            {
              "components": [
                {
                  "internalType": "uint256",
                  "name": "value",
                  "type": "uint256"
                }
              ],
              "internalType": "struct PairingsBn254.Fr",
              "name": "quotient_poly_opening_at_z",
              "type": "tuple"
            },
            {
              "components": [
                {
                  "internalType": "uint256",
                  "name": "value",
                  "type": "uint256"
                }
              ],
              "internalType": "struct PairingsBn254.Fr",
              "name": "linearization_poly_opening_at_z",
              "type": "tuple"
            },
            {
              "components": [
                {
                  "internalType": "uint256",
                  "name": "X",
                  "type": "uint256"
                },
                {
                  "internalType": "uint256",
                  "name": "Y",
                  "type": "uint256"
                }
              ],
              "internalType": "struct PairingsBn254.G1Point",
              "name": "lookup_s_poly_commitment",
              "type": "tuple"
            },
            {
              "components": [
                {
                  "internalType": "uint256",
                  "name": "X",
                  "type": "uint256"
                },
                {
                  "internalType": "uint256",
                  "name": "Y",
                  "type": "uint256"
                }
              ],
              "internalType": "struct PairingsBn254.G1Point",
              "name": "lookup_grand_product_commitment",
              "type": "tuple"
            },
            {
              "components": [
                {
                  "internalType": "uint256",
                  "name": "value",
                  "type": "uint256"
                }
              ],
              "internalType": "struct PairingsBn254.Fr",
              "name": "lookup_s_poly_opening_at_z_omega",
              "type": "tuple"
            },
            {
              "components": [
                {
                  "internalType": "uint256",
                  "name": "value",
                  "type": "uint256"
                }
              ],
              "internalType": "struct PairingsBn254.Fr",
              "name": "lookup_grand_product_opening_at_z_omega",
              "type": "tuple"
            },
            {
              "components": [
                {
                  "internalType": "uint256",
                  "name": "value",
                  "type": "uint256"
                }
              ],
              "internalType": "struct PairingsBn254.Fr",
              "name": "lookup_t_poly_opening_at_z",
              "type": "tuple"
            },
            {
              "components": [
                {
                  "internalType": "uint256",
                  "name": "value",
                  "type": "uint256"
                }
              ],
              "internalType": "struct PairingsBn254.Fr",
              "name": "lookup_t_poly_opening_at_z_omega",
              "type": "tuple"
            },
            {
              "components": [
                {
                  "internalType": "uint256",
                  "name": "value",
                  "type": "uint256"
                }
              ],
              "internalType": "struct PairingsBn254.Fr",
              "name": "lookup_selector_poly_opening_at_z",
              "type": "tuple"
            },
            {
              "components": [
                {
                  "internalType": "uint256",
                  "name": "value",
                  "type": "uint256"
                }
              ],
              "internalType": "struct PairingsBn254.Fr",
              "name": "lookup_table_type_poly_opening_at_z",
              "type": "tuple"
            },
            {
              "components": [
                {
                  "internalType": "uint256",
                  "name": "X",
                  "type": "uint256"
                },
                {
                  "internalType": "uint256",
                  "name": "Y",
                  "type": "uint256"
                }
              ],
              "internalType": "struct PairingsBn254.G1Point",
              "name": "opening_proof_at_z",
              "type": "tuple"
            },
            {
              "components": [
                {
                  "internalType": "uint256",
                  "name": "X",
                  "type": "uint256"
                },
                {
                  "internalType": "uint256",
                  "name": "Y",
                  "type": "uint256"
                }
              ],
              "internalType": "struct PairingsBn254.G1Point",
              "name": "opening_proof_at_z_omega",
              "type": "tuple"
            }
          ],
          "internalType": "struct Plonk4VerifierWithAccessToDNext.Proof",
          "name": "proof",
          "type": "tuple"
        },
        {
          "components": [
            {
              "components": [
                {
                  "internalType": "uint256",
                  "name": "value",
                  "type": "uint256"
                }
              ],
              "internalType": "struct PairingsBn254.Fr",
              "name": "zero",
              "type": "tuple"
            },
            {
              "components": [
                {
                  "internalType": "uint256",
                  "name": "value",
                  "type": "uint256"
                }
              ],
              "internalType": "struct PairingsBn254.Fr",
              "name": "alpha",
              "type": "tuple"
            },
            {
              "components": [
                {
                  "internalType": "uint256",
                  "name": "value",
                  "type": "uint256"
                }
              ],
              "internalType": "struct PairingsBn254.Fr",
              "name": "beta",
              "type": "tuple"
            },
            {
              "components": [
                {
                  "internalType": "uint256",
                  "name": "value",
                  "type": "uint256"
                }
              ],
              "internalType": "struct PairingsBn254.Fr",
              "name": "gamma",
              "type": "tuple"
            },
            {
              "components": [
                {
                  "internalType": "uint256",
                  "name": "value",
                  "type": "uint256"
                }
              ],
              "internalType": "struct PairingsBn254.Fr[9]",
              "name": "alpha_values",
              "type": "tuple[9]"
            },
            {
              "components": [
                {
                  "internalType": "uint256",
                  "name": "value",
                  "type": "uint256"
                }
              ],
              "internalType": "struct PairingsBn254.Fr",
              "name": "eta",
              "type": "tuple"
            },
            {
              "components": [
                {
                  "internalType": "uint256",
                  "name": "value",
                  "type": "uint256"
                }
              ],
              "internalType": "struct PairingsBn254.Fr",
              "name": "beta_lookup",
              "type": "tuple"
            },
            {
              "components": [
                {
                  "internalType": "uint256",
                  "name": "value",
                  "type": "uint256"
                }
              ],
              "internalType": "struct PairingsBn254.Fr",
              "name": "gamma_lookup",
              "type": "tuple"
            },
            {
              "components": [
                {
                  "internalType": "uint256",
                  "name": "value",
                  "type": "uint256"
                }
              ],
              "internalType": "struct PairingsBn254.Fr",
              "name": "beta_plus_one",
              "type": "tuple"
            },
            {
              "components": [
                {
                  "internalType": "uint256",
                  "name": "value",
                  "type": "uint256"
                }
              ],
              "internalType": "struct PairingsBn254.Fr",
              "name": "beta_gamma",
              "type": "tuple"
            },
            {
              "components": [
                {
                  "internalType": "uint256",
                  "name": "value",
                  "type": "uint256"
                }
              ],
              "internalType": "struct PairingsBn254.Fr",
              "name": "v",
              "type": "tuple"
            },
            {
              "components": [
                {
                  "internalType": "uint256",
                  "name": "value",
                  "type": "uint256"
                }
              ],
              "internalType": "struct PairingsBn254.Fr",
              "name": "u",
              "type": "tuple"
            },
            {
              "components": [
                {
                  "internalType": "uint256",
                  "name": "value",
                  "type": "uint256"
                }
              ],
              "internalType": "struct PairingsBn254.Fr",
              "name": "z",
              "type": "tuple"
            },
            {
              "components": [
                {
                  "internalType": "uint256",
                  "name": "value",
                  "type": "uint256"
                }
              ],
              "internalType": "struct PairingsBn254.Fr",
              "name": "z_omega",
              "type": "tuple"
            },
            {
              "components": [
                {
                  "internalType": "uint256",
                  "name": "value",
                  "type": "uint256"
                }
              ],
              "internalType": "struct PairingsBn254.Fr",
              "name": "z_minus_last_omega",
              "type": "tuple"
            },
            {
              "components": [
                {
                  "internalType": "uint256",
                  "name": "value",
                  "type": "uint256"
                }
              ],
              "internalType": "struct PairingsBn254.Fr",
              "name": "l_0_at_z",
              "type": "tuple"
            },
            {
              "components": [
                {
                  "internalType": "uint256",
                  "name": "value",
                  "type": "uint256"
                }
              ],
              "internalType": "struct PairingsBn254.Fr",
              "name": "l_n_minus_one_at_z",
              "type": "tuple"
            },
            {
              "components": [
                {
                  "internalType": "uint256",
                  "name": "value",
                  "type": "uint256"
                }
              ],
              "internalType": "struct PairingsBn254.Fr",
              "name": "t",
              "type": "tuple"
            },
            {
              "components": [
                {
                  "internalType": "uint256",
                  "name": "X",
                  "type": "uint256"
                },
                {
                  "internalType": "uint256",
                  "name": "Y",
                  "type": "uint256"
                }
              ],
              "internalType": "struct PairingsBn254.G1Point",
              "name": "tp",
              "type": "tuple"
            }
          ],
          "internalType": "struct Plonk4VerifierWithAccessToDNext.PartialVerifierState",
          "name": "state",
          "type": "tuple"
        }
      ],
      "name": "prepare_queries",
      "outputs": [
        {
          "components": [
            {
              "components": [
                {
                  "internalType": "uint256",
                  "name": "X",
                  "type": "uint256"
                },
                {
                  "internalType": "uint256",
                  "name": "Y",
                  "type": "uint256"
                }
              ],
              "internalType": "struct PairingsBn254.G1Point[13]",
              "name": "commitments_at_z",
              "type": "tuple[13]"
            },
            {
              "components": [
                {
                  "internalType": "uint256",
                  "name": "value",
                  "type": "uint256"
                }
              ],
              "internalType": "struct PairingsBn254.Fr[13]",
              "name": "values_at_z",
              "type": "tuple[13]"
            },
            {
              "components": [
                {
                  "internalType": "uint256",
                  "name": "X",
                  "type": "uint256"
                },
                {
                  "internalType": "uint256",
                  "name": "Y",
                  "type": "uint256"
                }
              ],
              "internalType": "struct PairingsBn254.G1Point[6]",
              "name": "commitments_at_z_omega",
              "type": "tuple[6]"
            },
            {
              "components": [
                {
                  "internalType": "uint256",
                  "name": "value",
                  "type": "uint256"
                }
              ],
              "internalType": "struct PairingsBn254.Fr[6]",
              "name": "values_at_z_omega",
              "type": "tuple[6]"
            }
          ],
          "internalType": "struct Plonk4VerifierWithAccessToDNext.Queries",
          "name": "queries",
          "type": "tuple"
        }
      ],
      "stateMutability": "view",
      "type": "function"
    },
    {
      "inputs": [
        {
          "components": [
            {
              "internalType": "uint256",
              "name": "domain_size",
              "type": "uint256"
            },
            {
              "internalType": "uint256",
              "name": "num_inputs",
              "type": "uint256"
            },
            {
              "components": [
                {
                  "internalType": "uint256",
                  "name": "value",
                  "type": "uint256"
                }
              ],
              "internalType": "struct PairingsBn254.Fr",
              "name": "omega",
              "type": "tuple"
            },
            {
              "components": [
                {
                  "internalType": "uint256",
                  "name": "X",
                  "type": "uint256"
                },
                {
                  "internalType": "uint256",
                  "name": "Y",
                  "type": "uint256"
                }
              ],
              "internalType": "struct PairingsBn254.G1Point[2]",
              "name": "gate_selectors_commitments",
              "type": "tuple[2]"
            },
            {
              "components": [
                {
                  "internalType": "uint256",
                  "name": "X",
                  "type": "uint256"
                },
                {
                  "internalType": "uint256",
                  "name": "Y",
                  "type": "uint256"
                }
              ],
              "internalType": "struct PairingsBn254.G1Point[8]",
              "name": "gate_setup_commitments",
              "type": "tuple[8]"
            },
            {
              "components": [
                {
                  "internalType": "uint256",
                  "name": "X",
                  "type": "uint256"
                },
                {
                  "internalType": "uint256",
                  "name": "Y",
                  "type": "uint256"
                }
              ],
              "internalType": "struct PairingsBn254.G1Point[4]",
              "name": "permutation_commitments",
              "type": "tuple[4]"
            },
            {
              "components": [
                {
                  "internalType": "uint256",
                  "name": "X",
                  "type": "uint256"
                },
                {
                  "internalType": "uint256",
                  "name": "Y",
                  "type": "uint256"
                }
              ],
              "internalType": "struct PairingsBn254.G1Point",
              "name": "lookup_selector_commitment",
              "type": "tuple"
            },
            {
              "components": [
                {
                  "internalType": "uint256",
                  "name": "X",
                  "type": "uint256"
                },
                {
                  "internalType": "uint256",
                  "name": "Y",
                  "type": "uint256"
                }
              ],
              "internalType": "struct PairingsBn254.G1Point[4]",
              "name": "lookup_tables_commitments",
              "type": "tuple[4]"
            },
            {
              "components": [
                {
                  "internalType": "uint256",
                  "name": "X",
                  "type": "uint256"
                },
                {
                  "internalType": "uint256",
                  "name": "Y",
                  "type": "uint256"
                }
              ],
              "internalType": "struct PairingsBn254.G1Point",
              "name": "lookup_table_type_commitment",
              "type": "tuple"
            },
            {
              "components": [
                {
                  "internalType": "uint256",
                  "name": "value",
                  "type": "uint256"
                }
              ],
              "internalType": "struct PairingsBn254.Fr[3]",
              "name": "non_residues",
              "type": "tuple[3]"
            },
            {
              "components": [
                {
                  "internalType": "uint256[2]",
                  "name": "X",
                  "type": "uint256[2]"
                },
                {
                  "internalType": "uint256[2]",
                  "name": "Y",
                  "type": "uint256[2]"
                }
              ],
              "internalType": "struct PairingsBn254.G2Point[2]",
              "name": "g2_elements",
              "type": "tuple[2]"
            }
          ],
          "internalType": "struct VerificationKey",
          "name": "vk",
          "type": "tuple"
        },
        {
          "components": [
            {
              "internalType": "uint256[]",
              "name": "input_values",
              "type": "uint256[]"
            },
            {
              "components": [
                {
                  "internalType": "uint256",
                  "name": "X",
                  "type": "uint256"
                },
                {
                  "internalType": "uint256",
                  "name": "Y",
                  "type": "uint256"
                }
              ],
              "internalType": "struct PairingsBn254.G1Point[4]",
              "name": "state_polys_commitments",
              "type": "tuple[4]"
            },
            {
              "components": [
                {
                  "internalType": "uint256",
                  "name": "X",
                  "type": "uint256"
                },
                {
                  "internalType": "uint256",
                  "name": "Y",
                  "type": "uint256"
                }
              ],
              "internalType": "struct PairingsBn254.G1Point",
              "name": "copy_permutation_grand_product_commitment",
              "type": "tuple"
            },
            {
              "components": [
                {
                  "internalType": "uint256",
                  "name": "X",
                  "type": "uint256"
                },
                {
                  "internalType": "uint256",
                  "name": "Y",
                  "type": "uint256"
                }
              ],
              "internalType": "struct PairingsBn254.G1Point[4]",
              "name": "quotient_poly_parts_commitments",
              "type": "tuple[4]"
            },
            {
              "components": [
                {
                  "internalType": "uint256",
                  "name": "value",
                  "type": "uint256"
                }
              ],
              "internalType": "struct PairingsBn254.Fr[4]",
              "name": "state_polys_openings_at_z",
              "type": "tuple[4]"
            },
            {
              "components": [
                {
                  "internalType": "uint256",
                  "name": "value",
                  "type": "uint256"
                }
              ],
              "internalType": "struct PairingsBn254.Fr[1]",
              "name": "state_polys_openings_at_z_omega",
              "type": "tuple[1]"
            },
            {
              "components": [
                {
                  "internalType": "uint256",
                  "name": "value",
                  "type": "uint256"
                }
              ],
              "internalType": "struct PairingsBn254.Fr[1]",
              "name": "gate_selectors_openings_at_z",
              "type": "tuple[1]"
            },
            {
              "components": [
                {
                  "internalType": "uint256",
                  "name": "value",
                  "type": "uint256"
                }
              ],
              "internalType": "struct PairingsBn254.Fr[3]",
              "name": "copy_permutation_polys_openings_at_z",
              "type": "tuple[3]"
            },
            {
              "components": [
                {
                  "internalType": "uint256",
                  "name": "value",
                  "type": "uint256"
                }
              ],
              "internalType": "struct PairingsBn254.Fr",
              "name": "copy_permutation_grand_product_opening_at_z_omega",
              "type": "tuple"
            },
            {
              "components": [
                {
                  "internalType": "uint256",
                  "name": "value",
                  "type": "uint256"
                }
              ],
              "internalType": "struct PairingsBn254.Fr",
              "name": "quotient_poly_opening_at_z",
              "type": "tuple"
            },
            {
              "components": [
                {
                  "internalType": "uint256",
                  "name": "value",
                  "type": "uint256"
                }
              ],
              "internalType": "struct PairingsBn254.Fr",
              "name": "linearization_poly_opening_at_z",
              "type": "tuple"
            },
            {
              "components": [
                {
                  "internalType": "uint256",
                  "name": "X",
                  "type": "uint256"
                },
                {
                  "internalType": "uint256",
                  "name": "Y",
                  "type": "uint256"
                }
              ],
              "internalType": "struct PairingsBn254.G1Point",
              "name": "lookup_s_poly_commitment",
              "type": "tuple"
            },
            {
              "components": [
                {
                  "internalType": "uint256",
                  "name": "X",
                  "type": "uint256"
                },
                {
                  "internalType": "uint256",
                  "name": "Y",
                  "type": "uint256"
                }
              ],
              "internalType": "struct PairingsBn254.G1Point",
              "name": "lookup_grand_product_commitment",
              "type": "tuple"
            },
            {
              "components": [
                {
                  "internalType": "uint256",
                  "name": "value",
                  "type": "uint256"
                }
              ],
              "internalType": "struct PairingsBn254.Fr",
              "name": "lookup_s_poly_opening_at_z_omega",
              "type": "tuple"
            },
            {
              "components": [
                {
                  "internalType": "uint256",
                  "name": "value",
                  "type": "uint256"
                }
              ],
              "internalType": "struct PairingsBn254.Fr",
              "name": "lookup_grand_product_opening_at_z_omega",
              "type": "tuple"
            },
            {
              "components": [
                {
                  "internalType": "uint256",
                  "name": "value",
                  "type": "uint256"
                }
              ],
              "internalType": "struct PairingsBn254.Fr",
              "name": "lookup_t_poly_opening_at_z",
              "type": "tuple"
            },
            {
              "components": [
                {
                  "internalType": "uint256",
                  "name": "value",
                  "type": "uint256"
                }
              ],
              "internalType": "struct PairingsBn254.Fr",
              "name": "lookup_t_poly_opening_at_z_omega",
              "type": "tuple"
            },
            {
              "components": [
                {
                  "internalType": "uint256",
                  "name": "value",
                  "type": "uint256"
                }
              ],
              "internalType": "struct PairingsBn254.Fr",
              "name": "lookup_selector_poly_opening_at_z",
              "type": "tuple"
            },
            {
              "components": [
                {
                  "internalType": "uint256",
                  "name": "value",
                  "type": "uint256"
                }
              ],
              "internalType": "struct PairingsBn254.Fr",
              "name": "lookup_table_type_poly_opening_at_z",
              "type": "tuple"
            },
            {
              "components": [
                {
                  "internalType": "uint256",
                  "name": "X",
                  "type": "uint256"
                },
                {
                  "internalType": "uint256",
                  "name": "Y",
                  "type": "uint256"
                }
              ],
              "internalType": "struct PairingsBn254.G1Point",
              "name": "opening_proof_at_z",
              "type": "tuple"
            },
            {
              "components": [
                {
                  "internalType": "uint256",
                  "name": "X",
                  "type": "uint256"
                },
                {
                  "internalType": "uint256",
                  "name": "Y",
                  "type": "uint256"
                }
              ],
              "internalType": "struct PairingsBn254.G1Point",
              "name": "opening_proof_at_z_omega",
              "type": "tuple"
            }
          ],
          "internalType": "struct Plonk4VerifierWithAccessToDNext.Proof",
          "name": "proof",
          "type": "tuple"
        },
        {
          "components": [
            {
              "components": [
                {
                  "internalType": "uint256",
                  "name": "value",
                  "type": "uint256"
                }
              ],
              "internalType": "struct PairingsBn254.Fr",
              "name": "zero",
              "type": "tuple"
            },
            {
              "components": [
                {
                  "internalType": "uint256",
                  "name": "value",
                  "type": "uint256"
                }
              ],
              "internalType": "struct PairingsBn254.Fr",
              "name": "alpha",
              "type": "tuple"
            },
            {
              "components": [
                {
                  "internalType": "uint256",
                  "name": "value",
                  "type": "uint256"
                }
              ],
              "internalType": "struct PairingsBn254.Fr",
              "name": "beta",
              "type": "tuple"
            },
            {
              "components": [
                {
                  "internalType": "uint256",
                  "name": "value",
                  "type": "uint256"
                }
              ],
              "internalType": "struct PairingsBn254.Fr",
              "name": "gamma",
              "type": "tuple"
            },
            {
              "components": [
                {
                  "internalType": "uint256",
                  "name": "value",
                  "type": "uint256"
                }
              ],
              "internalType": "struct PairingsBn254.Fr[9]",
              "name": "alpha_values",
              "type": "tuple[9]"
            },
            {
              "components": [
                {
                  "internalType": "uint256",
                  "name": "value",
                  "type": "uint256"
                }
              ],
              "internalType": "struct PairingsBn254.Fr",
              "name": "eta",
              "type": "tuple"
            },
            {
              "components": [
                {
                  "internalType": "uint256",
                  "name": "value",
                  "type": "uint256"
                }
              ],
              "internalType": "struct PairingsBn254.Fr",
              "name": "beta_lookup",
              "type": "tuple"
            },
            {
              "components": [
                {
                  "internalType": "uint256",
                  "name": "value",
                  "type": "uint256"
                }
              ],
              "internalType": "struct PairingsBn254.Fr",
              "name": "gamma_lookup",
              "type": "tuple"
            },
            {
              "components": [
                {
                  "internalType": "uint256",
                  "name": "value",
                  "type": "uint256"
                }
              ],
              "internalType": "struct PairingsBn254.Fr",
              "name": "beta_plus_one",
              "type": "tuple"
            },
            {
              "components": [
                {
                  "internalType": "uint256",
                  "name": "value",
                  "type": "uint256"
                }
              ],
              "internalType": "struct PairingsBn254.Fr",
              "name": "beta_gamma",
              "type": "tuple"
            },
            {
              "components": [
                {
                  "internalType": "uint256",
                  "name": "value",
                  "type": "uint256"
                }
              ],
              "internalType": "struct PairingsBn254.Fr",
              "name": "v",
              "type": "tuple"
            },
            {
              "components": [
                {
                  "internalType": "uint256",
                  "name": "value",
                  "type": "uint256"
                }
              ],
              "internalType": "struct PairingsBn254.Fr",
              "name": "u",
              "type": "tuple"
            },
            {
              "components": [
                {
                  "internalType": "uint256",
                  "name": "value",
                  "type": "uint256"
                }
              ],
              "internalType": "struct PairingsBn254.Fr",
              "name": "z",
              "type": "tuple"
            },
            {
              "components": [
                {
                  "internalType": "uint256",
                  "name": "value",
                  "type": "uint256"
                }
              ],
              "internalType": "struct PairingsBn254.Fr",
              "name": "z_omega",
              "type": "tuple"
            },
            {
              "components": [
                {
                  "internalType": "uint256",
                  "name": "value",
                  "type": "uint256"
                }
              ],
              "internalType": "struct PairingsBn254.Fr",
              "name": "z_minus_last_omega",
              "type": "tuple"
            },
            {
              "components": [
                {
                  "internalType": "uint256",
                  "name": "value",
                  "type": "uint256"
                }
              ],
              "internalType": "struct PairingsBn254.Fr",
              "name": "l_0_at_z",
              "type": "tuple"
            },
            {
              "components": [
                {
                  "internalType": "uint256",
                  "name": "value",
                  "type": "uint256"
                }
              ],
              "internalType": "struct PairingsBn254.Fr",
              "name": "l_n_minus_one_at_z",
              "type": "tuple"
            },
            {
              "components": [
                {
                  "internalType": "uint256",
                  "name": "value",
                  "type": "uint256"
                }
              ],
              "internalType": "struct PairingsBn254.Fr",
              "name": "t",
              "type": "tuple"
            },
            {
              "components": [
                {
                  "internalType": "uint256",
                  "name": "X",
                  "type": "uint256"
                },
                {
                  "internalType": "uint256",
                  "name": "Y",
                  "type": "uint256"
                }
              ],
              "internalType": "struct PairingsBn254.G1Point",
              "name": "tp",
              "type": "tuple"
            }
          ],
          "internalType": "struct Plonk4VerifierWithAccessToDNext.PartialVerifierState",
          "name": "state",
          "type": "tuple"
        }
      ],
      "name": "rescue_custom_gate_linearization_contribution",
      "outputs": [
        {
          "components": [
            {
              "internalType": "uint256",
              "name": "X",
              "type": "uint256"
            },
            {
              "internalType": "uint256",
              "name": "Y",
              "type": "uint256"
            }
          ],
          "internalType": "struct PairingsBn254.G1Point",
          "name": "result",
          "type": "tuple"
        }
      ],
      "stateMutability": "view",
      "type": "function"
    },
    {
      "inputs": [
        {
          "internalType": "uint256[]",
          "name": "public_inputs",
          "type": "uint256[]"
        },
        {
          "internalType": "uint256[]",
          "name": "serialized_proof",
          "type": "uint256[]"
        }
      ],
      "name": "verify_serialized_proof",
      "outputs": [
        {
          "internalType": "bool",
          "name": "",
          "type": "bool"
        }
      ],
      "stateMutability": "view",
      "type": "function"
    }
  ],
  "bytecode": "0x608060405234801561001057600080fd5b506147d2806100206000396000f3fe608060405234801561001057600080fd5b506004361061004c5760003560e01c8063330deb9f146100515780633ec236cb14610079578063c2ef604114610099578063fec4e96e146100b9575b600080fd5b61006461005f366004613b54565b6100ce565b60405190151581526020015b60405180910390f35b61008c61008736600461446e565b610111565b6040516100709190614598565b6100ac6100a736600461446e565b610266565b6040516100709190614611565b6100cc6100c73660046146b2565b6105ca565b005b6000806100d9610678565b602081015190915085146100ec57600080fd5b60006100fa87878787610ed7565b90506101068183611322565b979650505050505050565b6040805180820190915260008082526020820152604080516020810190915260008152604080516020810190915260008152608085015161016a9060005b60200201516040805160208101909152600081529051815290565b91506101768280611607565b608085015161018e9060015b60200201518390611621565b60808401516101a69060015b60200201518390611607565b6101b08183611653565b60808501516101c090600161014f565b91506101cc8280611607565b60808501516101dc906002610182565b60808401516101ec90600261019a565b6101f68183611653565b608085015161020690600261014f565b608086015190925061021990600061019a565b6080850151610229906003610182565b608084015161023990600361019a565b6102438183611653565b606086015161025c90829060015b60200201519061166d565b9695505050505050565b61026e6133e5565b600260005b60048110156102f15784602001518160048110610292576102926146d6565b6020020151835183600d81106102aa576102aa6146d6565b6020020152608085015181600481106102c5576102c56146d6565b6020020151836020015183600d81106102e0576102e06146d6565b602002015260019182019101610273565b50606085015151825182600d811061030b5761030b6146d6565b602002015260c084015160006020020151826020015182600d8110610332576103326146d6565b602002015260010160005b61034960016004614702565b8110156103c5578560a001518160048110610366576103666146d6565b6020020151835183600d811061037e5761037e6146d6565b602002015260e08501518160038110610399576103996146d6565b6020020151836020015183600d81106103b4576103b46146d6565b60200201526001918201910161033d565b50604084810151908301515260208401516103e260016004614702565b600481106103f2576103f26146d6565b6020908102919091015160408401518201526101008501516060840180519190915260a0808701515191519092015260e08601515190840151600090610448906040805160208101909152600081529051815290565b905060015b600481101561049b57610470828960e001518360048110610251576102516146d6565b61024087018190526104839084906116ac565b60a0860151610493908390611607565b60010161044d565b508351829084600d81106104b1576104b16146d6565b6020020181905250856101e00151846020015184600d81106104d5576104d56146d6565b602002015260c087015184516001949094019384600d81106104f9576104f96146d6565b6020020181905250856102200151846020015184600d811061051d5761051d6146d6565b602002015261010087015184516001949094019384600d8110610542576105426146d6565b6020020181905250856102400151846020015184600d8110610566576105666146d6565b602002015250610160850151604084810180518201929092526101a0870151606080870180519093019190915261018088015183518201526101c0880151825190910152905160809081019290925261020090950151945101939093529392505050565b6020810151516000036105dc57600080fd5b6105e660016116bb565b608082018051919091526020808301805160408051808501825260008082529251815294518401949094529051835192830190935281529051815260025b600981101561067357602083015161063d908390611607565b6040805160208101909152600081528251815283608001518260098110610666576106666146d6565b6020020152600101610624565b505050565b610680613424565b60016020820152630400000081526106b77f1dba8b5bdd64ef6ce29a9039aca3c0e524395c43b9227b96c75090cc6cc7ec976116bb565b60408201526107067f19af674d98a56e4b530aa94bf82df98768bb214aa1f261b1d1fb6789f9e66d677f0335e647418f85e76d27feca0cce7027b92b0eabf93888219b9beca0668867306116f6565b6080820151526107557f0503f826267486c0a6d73afb4d9a8f0ed019d5d129fcedcbfa0b2970c8a3d7fa7e8af7d231afc190a96c02da5cc6721fcff5e01ba1ad65540a3fde576802d1cd6116f6565b6080820151602001526107a87f0198011f9c1c53811036bc8e0e8002c1b8892001e9ce0cd18110af9a030874217f25933f6eb6db13720269a863a55db5dd31c96b1ee0da61e34e09f83a59297ca26116f6565b6080820151604001526107fb7f17e76e39a1a2e71f32b5cab55c4eef178a632e7d907153e06f53e364dbd2cbc87f21fccb59891624d9d9d35d0f661afb120ca1f78628b8aa59beeefd4431107e886116f6565b60808201516060015261084e7f1b041d57c56b8521f2520442e462f755721ab4aeb573487618ce09910a8c63547f0e4ec17897446c4fd1c36559405a0d2def071c4ad5b9124116db5654129ffed56116f6565b60808281015101526108a07f2a06f3104a04d0a5272f5e623cdecdce7e06b4aef361be0786f3a6814280d05b7f21541f91d1e19e517d6471dba9f048355896e9a2bf7ececbecbdc63431ecb2616116f6565b608082015160a001526108f37f204b887749553f1d24bec0f6066088454b586d25fc57d716679517d12082e1ed7f27f989c5dd011c6aaf441068780f3b133eb2bde878843155c85abeec4ab91f116116f6565b608082015160c001526109467f1a8cd862024729474b1b5ef122acf86f759433abaefdcfb8fa7e6ad761b112b27f2a80832c2d1f2e7aa625b720d14b93f628c107ef41d78d492aa123c75d97a8486116f6565b608082015160e001526109997f1633993f359a7b1738f2fbd69ce7643e423570fb0a6fe55a244bea41596dfc3d7f2cf6203dad1d1295d1793cdd114195c129b0ecc663f4e92917c1490980385a446116f6565b6060820151526109e97f10f0ab2fda24f693b7851a3c626c5eb3dd1ef9bacc68fdbfe638466f8fc2b9497f15fde64ce1ae3313f039d7b9b7f192fa5a7b0bd80307c67cfed47fae20f008e46116f6565b606082015160200152610a3c7f03a5af959e223de35693573bc896f333fac84cfe4f272c4080bc102e4c4752b37f102cd8e77890c56a99a9cf9bb964ee3e3b60629e35f60b94a97932903b31cbc66116f6565b60a082015152610a8c7f0f4c46be8af3e4fa5e0ce6d2985b1db29177975309e55748da391d2b81c982887f1c5bed67fe034739a649e373e684120495431377c2d4e81689d678635ea737b26116f6565b60a082015160200152610adf7f2a990254375e7cc9bec8ab68e5a5ec5ee49de5b2a6b0b33cecb557125aa93b437f046b3e9a530f72b2a8d3226b1285ce7b656bb112e243750664fe066423bcb4ca6116f6565b60a082015160400152610b327f281baa0297d9c6d6a8d79caa59fa5dd78efe760dfd4a1ae7575b8b996497e4cc7f22a32326f73a3d070184f7da88ebec776d1ef63207bb2b5e04d28307eeed9c476116f6565b60a082015160600152610b857f1035bcc4f67bc18af0db54384cc120d50060121d3b2a4e8698937756b3f73b547f1b1eebcd824d7b114cd230e0a450b63ff5218a6141bb5bf013a79ba2ab6f7ddb6116f6565b60c0820152610bd47f0ebe0de4a2f39df3b903da484c1641ffdffb77ff87ce4f9508c548659eb22d3c7f12a3209440242d5662729558f1017ed9dcc08fe49a99554dd45f5f15da5e4e0b6116f6565b60e082015152610c247f1b7d54f8065ca63bed0bfbb9280a1011b886d07e0c0a26a66ecc96af68c53bf97f2c51121fff5b8f58c302f03c74e0cb176ae5a1d1730dec4696eb9cce3fe284ca6116f6565b60e082015160200152610c777f0138733c5faa9db6d4b8df9748081e38405999e511fb22d40f77cf3aef293c447f269bee1c1ac28053238f7fe789f1ea2e481742d6d16ae78ed81e87c254af07656116f6565b60e082015160400152610cca7f1b1be7279d59445065a95f01f16686adfa798ec4f1e6845ffcec9b837e88372e7f057c90cb96d8259238ed86b05f629efd55f472a721efeeb56926e979433e6c0e6116f6565b60e082015160600152610d1d7f011967367ae87879d15a58c58e4849bc897764ce3f016d5abc04bc7804d6bdf77f29775ffa2d2ddd439a664e165294f68ea17d6d754bcf4c20a52fbf766eeb19956116f6565b610100820152610d2d60056116bb565b61012082015152610d3e60076116bb565b61012082015160200152610d52600a6116bb565b61012082015160026020020181905250610e1460405180604001604052807f198e9393920d483a7260bfb731fb5d25f1aa493335a9e71297e485b7aef312c281526020017f1800deef121f1e76426a00665e5c4479674322d4f75edadd46debd5cd992f6ed81525060405180604001604052807f090689d0585ff075ec9e99ad690c3395bc4b313370b38ef355acdadcd122975b81526020017f12c85ea5db8c6deb4aab71808dcb408fe3d1e7690c43d37b4ce6cc0166fa7daa815250611721565b610140820151526040805180820182527f260e01b251f6f1c7e7ff4e580791dee8ea51d87a358e038b4efe30fac09383c181527f0118c4d5b837bcc2bc89b5b398b5974e9f5944073b32078b7e231fec938883b060208281019190915282518084019093527f04fc6369f7110fe3d25156c1bb9a72859cf2a04641f99ba4ee413c80da6a5fe483527f22febda3c0c0632a56475b4214e5615e11e6dd3f96e6cea2854a87d4dacc5e5590830152610eca91611721565b6101408201516020015290565b610edf6134e6565b836001600160401b03811115610ef757610ef7613bbf565b604051908082528060200260200182016040528015610f20578160200160208202803683370190505b50815260005b84811015610f7057858582818110610f4057610f406146d6565b9050602002013582600001518281518110610f5d57610f5d6146d6565b6020908102919091010152600101610f26565b506000805b6004811015610fea57610fc1858584818110610f9357610f936146d6565b905060200201358686610fa68660010190565b818110610fb557610fb56146d6565b90506020020135611729565b83602001518260048110610fd757610fd76146d6565b6020020152600282019150600101610f75565b50611013848483818110611000576110006146d6565b905060200201358585610fa68560010190565b6040830152600201611030848483818110611000576110006146d6565b61016083015260020161104e848483818110611000576110006146d6565b61018083015260020160005b60048110156110a157611078858584818110610f9357610f936146d6565b8360600151826004811061108e5761108e6146d6565b602002015260028201915060010161105a565b5060005b60048110156110f6576110cf8585848181106110c3576110c36146d6565b905060200201356116bb565b836080015182600481106110e5576110e56146d6565b6020020152600191820191016110a5565b5060005b600181101561113f576111188585848181106110c3576110c36146d6565b8360a00151826001811061112e5761112e6146d6565b6020020152600191820191016110fa565b5060005b6001811015611188576111618585848181106110c3576110c36146d6565b8360c001518260018110611177576111776146d6565b602002015260019182019101611143565b5060005b60038110156111d1576111aa8585848181106110c3576110c36146d6565b8360e0015182600381106111c0576111c06146d6565b60200201526001918201910161118c565b506111e78484838181106110c3576110c36146d6565b6101008301526001016112058484838181106110c3576110c36146d6565b6101a08301526001016112238484838181106110c3576110c36146d6565b6101c08301526001016112418484838181106110c3576110c36146d6565b6101e083015260010161125f8484838181106110c3576110c36146d6565b61020083015260010161127d8484838181106110c3576110c36146d6565b61022083015260010161129b8484838181106110c3576110c36146d6565b6102408301526001016112b98484838181106110c3576110c36146d6565b6101208301526001016112d78484838181106110c3576110c36146d6565b6101408301526001016112f5848483818110611000576110006146d6565b610260830152600201611313848483818110611000576110006146d6565b61028083015250949350505050565b60008061132f84846118c1565b905061133c838583611bfa565b151560000361134f576000915050611601565b606084015160009061138890825b6020020151604080518082019091526000808252602080830191825283518352929092015190915290565b845161018084015191925060009161139f91611ef3565b604080516020808201835260008083528451835283518085019094528084529083015291925060015b6004811015611412576113ea8960600151826004811061135d5761135d6146d6565b91506113f68284611f72565b61140085836116ac565b61140a8385611607565b6001016113c8565b505050506000611423858785610266565b80518390526101208701516020820151529050611441858785611f7d565b8151602090810191909152610140870151818301805190920152815151905151600061146d60016116bb565b905061148c604051806040016040528060008152602001600081525090565b60015b600d811015611515576101408801516114a9908490611607565b6114c383876000015183600d8110610251576102516146d6565b91506114cf85836116ac565b856020015181600d81106114e5576114e56146d6565b602002015161022089018190526114fc9084611607565b61022088015161150d908590611653565b60010161148f565b50610140870151611527908390611607565b6000611544838760400151600060068110610251576102516146d6565b6060870151519091506115578185611607565b60015b60068110156115e0576101408a0151611574908690611607565b61158e8589604001518360068110610251576102516146d6565b935061159a83856116ac565b876060015181600681106115b0576115b06146d6565b60200201516102208b018190526115c79086611607565b6102208a01516115d8908390611653565b60010161155a565b506115f58b61014001518d8b89868a876123cf565b99505050505050505050505b92915050565b60008051602061477d833981519152815183510990915250565b60008051602061477d833981519152815161164a9060008051602061477d833981519152614702565b83510890915250565b60008051602061477d833981519152815183510890915250565b60408051808201909152600080825260208201528251158015611694575082602001516001145b156116a157600060208401525b611601838383612577565b6116b78282846125b9565b5050565b60408051602081019091526000815260008051602061477d83398151915282106116e457600080fd5b50604080516020810190915290815290565b60408051808201909152600080825260208201525b5060408051808201909152918252602082015290565b61170b6136f4565b604080518082019091526000808252602082015282158015611749575081155b1561176a576040518060400160405280848152602001838152509050611601565b60008051602061475d83398151915283106117c15760405162461bcd60e51b81526020600482015260126024820152711e08185e1a5cc81a5cdb89dd081d985b1a5960721b60448201526064015b60405180910390fd5b60008051602061475d83398151915282106118135760405162461bcd60e51b81526020600482015260126024820152711e48185e1a5cc81a5cdb89dd081d985b1a5960721b60448201526064016117b8565b600060008051602061475d8339815191528384099050600060008051602061475d833981519152858609905060008051602061475d833981519152858209905060008051602061475d8339815191526003820890508082146118a95760405162461bcd60e51b815260206004820152600f60248201526e6973206e6f74206f6e20637572766560881b60448201526064016117b8565b50506040805180820190915292835250602082015290565b6118c9613714565b60408051606081018252600080825260208201819052918101829052905b836020015181101561192b576119238560000151828151811061190c5761190c6146d6565b60200260200101518361264990919063ffffffff16565b6001016118e7565b5060005b60048110156119655761195d85602001518260048110611951576119516146d6565b602002015183906126d7565b60010161192f565b5061196f816126f3565b60a08301526101608401516119859082906126d7565b61198e816126f3565b604083015261199c816126f3565b606083015260408401516119b19082906126d7565b6119ba816126f3565b60c08301526119c8816126f3565b60e08301526101808401516119de9082906126d7565b6119e7816126f3565b602083015260005b6004811015611a1957611a1185606001518260048110611951576119516146d6565b6001016119ef565b50611a23816126f3565b610180830152610120840151611a3a908290612799565b60005b6004811015611a7357611a6b85608001518260048110611a5f57611a5f6146d6565b60200201518390612799565b600101611a3d565b5060005b6001811015611aa157611a998560a001518260018110611a5f57611a5f6146d6565b600101611a77565b5060005b6001811015611acf57611ac78560c001518260018110611a5f57611a5f6146d6565b600101611aa5565b5060005b6003811015611afd57611af58560e001518260038110611a5f57611a5f6146d6565b600101611ad3565b506101808201516040805160208101825260008152915182526101a08401829052840151611b2b9190611607565b610100840151611b3c908290612799565b6101e0840151611b4d908290612799565b610220840151611b5e908290612799565b610240840151611b6f908290612799565b6101a0840151611b80908290612799565b6101c0840151611b91908290612799565b610200840151611ba2908290612799565b610140840151611bb3908290612799565b611bbc816126f3565b610140830152610260840151611bd39082906126d7565b610280840151611be49082906126d7565b611bed816126f3565b6101608301525092915050565b60008084602001516001600160401b03811115611c1957611c19613bbf565b604051908082528060200260200182016040528015611c42578160200160208202803683370190505b50905060005b8151811015611c775780828281518110611c6457611c646146d6565b6020908102919091010152600101611c48565b506000611c8460006116bb565b905060005b8660200151811015611d0257611cae81886000015189604001518861018001516127a7565b61022086015285518051611ce991611cdd9184908110611cd057611cd06146d6565b60200260200101516116bb565b61022087015190611607565b610220850151611cfa908390611653565b600101611c89565b5060c0850151611d1b9060005b60200201518290611607565b61014085015160408051602081019091526000815290518152611d3e8183611653565b611d47856105ca565b6080850151600090611d5a90600461014f565b9050611d748761010001518261160790919063ffffffff16565b611d8060016004614702565b600314611d8c57600080fd5b60408051602081019091526000815260005b6003811015611e2057611dc08960e00151826003811061014f5761014f6146d6565b9150611dd988604001518361160790919063ffffffff16565b611dfe89608001518260048110611df257611df26146d6565b60200201518390611653565b6060880151611e0e908390611653565b611e188383611607565b600101611d9e565b506080880151611e3190600361014f565b9050611e4a87606001518261165390919063ffffffff16565b611e548282611607565b611e5e8383611621565b6000611e738a60000151896101800151612855565b6080890151909150611e86906005611d0f565b611e908482611621565b6000611e9d8b8b8b6128db565b9050611ea98582611653565b6101208a0151604080516020810190915260008152905181528b516101808b0151611ede91611ed791612b2b565b8290611607565b945194519094149a9950505050505050505050565b604080516020808201835260008252825160c08101845281815280820182905292830152835160608301526080820183905260008051602061477d83398151915260a083015290611f426138c8565b600060208260c08560055afa905080611f5a57600080fd5b50604080516020810190915290518152949350505050565b6116b7828284612577565b6040805180820190915260008082526020820152611f9c6000806116f6565b90506000611fcb8460800151600060048110611fba57611fba6146d6565b602002015160808701516000610251565b9050611fd782826116ac565b6080840151611ff3906001602002015160808701516001610251565b9050611fff82826116ac565b608084015161201b906002602002015160808701516002610251565b905061202782826116ac565b6080840151612043906003602002015160808701516003610251565b905061204f82826116ac565b6080840151600090612061908261014f565b6080860151909150612074906001611d0f565b60808601516120869082906004610251565b915061209283836116ac565b60808501516120a290600061014f565b60808601519091506120b5906002611d0f565b60808601516120c79082906005610251565b91506120d383836116ac565b608086015160c001516120e79084906116ac565b60a08501515160808701516120fe91906007610251565b915061210a83836116ac565b60c08501515161211b908490611f72565b6000612128878787610111565b905061213484826116ac565b61214060016004614702565b60031461214c57600080fd5b600061215860016116bb565b90506000612176876080015160046009811061014f5761014f6146d6565b905060005b600481101561223e57610180880151604080516020810190915260008152905181529450806000036121b6576121b18584611607565b6121e7565b6101208a01516121e7906121cb600184614702565b600381106121db576121db6146d6565b60200201518690611607565b60408801516121f7908690611607565b6060880151612207908690611653565b61222c89608001518260048110612220576122206146d6565b60200201518690611653565b6122368286611607565b60010161217b565b50604088015161224e908261166d565b945061225a86866116ac565b608087015161226a90600461014f565b905061228387604001518261160790919063ffffffff16565b610100880151612294908290611607565b60005b6122a360016004614702565b811015612317576122c38960e00151826003811061014f5761014f6146d6565b94506122dc88604001518661160790919063ffffffff16565b60608801516122ec908690611653565b61230589608001518260048110612220576122206146d6565b61230f8286611607565b600101612297565b5060a089015161232a9082906003610251565b94506123368686612b5a565b61235060008a600001518b604001518a61018001516127a7565b6101e088018190525160000361236557600080fd5b506101e086015160408051602081019091526000815290518152608087015161238f906005611d0f565b604088015161239e908261166d565b94506123aa86866116ac565b60006123b68989612b65565b90506123c287826116ac565b5050505050509392505050565b6040805180820190915260008082526020808301828152875184529087015190529061240987610160015186611f7290919063ffffffff16565b61241381866116ac565b60408051602081019091526000815283518152610160880151612437908290611607565b6124418186611653565b600061247982612473604080518082018252600080825260209182015281518083019092526001825260029082015290565b9061166d565b90506124858382612b5a565b6101808901516102608b015161249a9161166d565b905060006124bd8a6101a001516040805160208101909152600081529051815290565b90506124d78a61016001518261160790919063ffffffff16565b6102808b01516000906124ea908361166d565b90506124f683826116ac565b61250085846116ac565b600061251f8c61016001518e610280015161166d90919063ffffffff16565b90506125398d6102600151826116ac90919063ffffffff16565b61254281612e33565b8d5160208f01516000612553612e73565b905061256189848685612f33565b9950505050505050505050979650505050505050565b61257f6138e6565b835181526020840151816001602002015282518160026020020152600060408360608460075afa9050806125b257600080fd5b5050505050565b81511580156125ca57506020820151155b156125e2578251815260209283015192019190915250565b82511580156125f357506020830151155b15612608578151815260209182015191015250565b612610613904565b8351815260208085015181830152835160408301528301518160035b6020020152600060408360808460065afa9050806125b257600080fd5b81516020808401516040516000928101929092526024820183905260448201526064810183905260840160408051808303601f1901815291815281516020928301208552848201519051600160e01b928101929092526024820183905260448201526064810183905260840160408051601f1981840301815291905280516020918201209301929092525050565b6126e5828260000151612649565b6116b7828260200151612649565b60408051602081019091526000815281516020808401516040808601519051600160e11b938101939093526024830193909352604482015260e09190911b6001600160e01b03191660648201526000906068016040516020818303038152906040528051906020012090506001836040018181516127719190614715565b63ffffffff1690525060408051602081019091526001600160fd1b0391909116815292915050565b6116b7828260000151612649565b6040805160208101909152600081528385106127c257600080fd5b60006127ce60016116bb565b905060006127dc8588611ef3565b90506127e88487611ef3565b92506127f48383611621565b825160000361280257600080fd5b61280c8382611607565b604080516020810190915260008152845181526128298183611621565b612835611ed7886116bb565b61283e81613033565b905061284a8482611607565b505050949350505050565b604080516020810190915260008152600061287060016116bb565b9050600061287d856116bb565b6040805160208101909152600081528551815290915061289d8184611621565b6128a78183611607565b6128b081613033565b90506128bc8587611ef3565b93506128c88484611621565b6128d28482611607565b50505092915050565b604080516020810190915260008152604080516020810190915260008152600061290560016116bb565b90506129258460c001516040805160208101909152600081529051815290565b61010085018190526129379082611653565b61010084015160408051602081019091526000815290518152610120850181905260e08501516129679190611607565b6101a08501516040805160208101909152600081529051815291506129998460c001518361160790919063ffffffff16565b6101208401516129aa908390611653565b6101c08501516129bb908390611607565b60808401516129cb90600661019a565b60006129ec600188600001516129e19190614702565b604089015190611ef3565b9050612a0d8561018001516040805160208101909152600081529051815290565b6101c08601819052612a1f9082611621565b6101c0850151612a30908490611607565b612a3a8484611653565b612a546000886000015189604001518861018001516127a7565b6101e0860181905260408051602081019091526000815290518152608086015160e00151909350612a86908490611607565b612a908484611621565b6000612ab260018960000151612aa69190614702565b61012088015190611ef3565b9050612ada60018960000151612ac89190614702565b895160408b01516101808a01516127a7565b6102008701819052604080516020810190915260008152905181529350612b018482611607565b60808601516101000151612b16908590611607565b612b208585611621565b505050509392505050565b604080516020810190915260008152612b448284611ef3565b9050611601612b5360016116bb565b8290611621565b6116b7828284613072565b60408051808201909152600080825260208201526000612b8560006116bb565b9050612b9d6040518060200160405280600081525090565b60408051602080820183526000918290526101c08801518351918201909352908152905181526080850151612bd3906006611d0f565b6101c0850151612be4908290611607565b610160860151600090612bf7908361166d565b9050612c0385826116ac565b610200870151604080516020810190915260008152905181529150612c358660c001518361160790919063ffffffff16565b6101e0870151612c46908390611653565b610120860151612c57908390611653565b6040805160208101909152600081526000612c7260016116bb565b9050612c8a6040518060200160405280600081525090565b60005b612c9960016004614702565b811015612ce757612cb98b60800151826004811061014f5761014f6146d6565b9150612cc58284611607565b612ccf8483611653565b60a08a0151612cdf908490611607565b600101612c8d565b506102408a0151604080516020810190915260008152905181529550612d0d8683611607565b612d178387611653565b6102208a0151612d28908490611607565b60e0890151612d38908490611653565b612d428584611607565b610100890151612d53908690611607565b604080516020810190915260008152875181529550612d728686611621565b6080890151869550612d859060066121db565b6101c0890151612d96908690611607565b6101e08901516040805160208101909152600081529051815260808a0151909650612dca9060075b60200201518790611607565b612dd48587611653565b6102008901516040805160208101909152600081529051815260808a0151909650612e00906008612dbe565b612e0a8587611653565b6101808a0151612e1a908661166d565b9350612e2688856116ac565b5050505050505092915050565b8060200151600003612e4e57805115612e4b57600080fd5b50565b6020810151612e6b9060008051602061475d833981519152614702565b602090910152565b612e7b6136f4565b50604080516080810182527f198e9393920d483a7260bfb731fb5d25f1aa493335a9e71297e485b7aef312c28183019081527f1800deef121f1e76426a00665e5c4479674322d4f75edadd46debd5cd992f6ed6060830152815281518083019092527f090689d0585ff075ec9e99ad690c3395bc4b313370b38ef355acdadcd122975b82527f12c85ea5db8c6deb4aab71808dcb408fe3d1e7690c43d37b4ce6cc0166fa7daa60208381019190915281019190915290565b60408051600280825260608201909252600091829190816020015b6040805180820190915260008082526020820152815260200190600190039081612f4e5750506040805160028082526060820190925291925060009190602082015b612f986136f4565b815260200190600190039081612f905790505090508682600081518110612fc157612fc16146d6565b60200260200101819052508482600181518110612fe057612fe06146d6565b60200260200101819052508581600081518110612fff57612fff6146d6565b6020026020010181905250838160018151811061301e5761301e6146d6565b6020026020010181905250610106828261311c565b604080516020810190915260008152815160000361305057600080fd5b6116018261306d600260008051602061477d833981519152614702565b611ef3565b815115801561308357506020820151155b1561309b578251815260209283015192019190915250565b82511580156130ac57506020830151155b156130dc578151815260208201516130d29060008051602061475d833981519152614702565b6020909101525050565b6130e4613904565b8351815260208085015181830152835160408301528301516131149060008051602061475d833981519152614702565b81600361262c565b6000815183511461312c57600080fd5b8251600061313b826006614732565b90506000816001600160401b0381111561315757613157613bbf565b604051908082528060200260200182016040528015613180578160200160208202803683370190505b50905060005b838110156133b1578681815181106131a0576131a06146d6565b602002602001015160000151828260066131ba9190614732565b6131c5906000614749565b815181106131d5576131d56146d6565b6020026020010181815250508681815181106131f3576131f36146d6565b6020026020010151602001518282600661320d9190614732565b613218906001614749565b81518110613228576132286146d6565b602002602001018181525050858181518110613246576132466146d6565b602090810291909101015151518261325f836006614732565b61326a906002614749565b8151811061327a5761327a6146d6565b602002602001018181525050858181518110613298576132986146d6565b602090810291909101810151510151826132b3836006614732565b6132be906003614749565b815181106132ce576132ce6146d6565b6020026020010181815250508581815181106132ec576132ec6146d6565b60200260200101516020015160006002811061330a5761330a6146d6565b60200201518261331b836006614732565b613326906004614749565b81518110613336576133366146d6565b602002602001018181525050858181518110613354576133546146d6565b602002602001015160200151600160028110613372576133726146d6565b602002015182613383836006614732565b61338e906005614749565b8151811061339e5761339e6146d6565b6020908102919091010152600101613186565b506133ba6138c8565b6000602082602086026020860160085afa9050806133d757600080fd5b505115159695505050505050565b60405180608001604052806133f8613922565b815260200161340561395c565b8152602001613412613991565b815260200161341f6139bb565b905290565b60405180610160016040528060008152602001600081526020016134546040518060200160405280600081525090565b81526020016134616139dc565b815260200161346e613a04565b815260200161347b613a30565b815260200161349d604051806040016040528060008152602001600081525090565b81526020016134aa613a30565b81526020016134cc604051806040016040528060008152602001600081525090565b81526020016134d9613a59565b815260200161341f613a7a565b604051806102a0016040528060608152602001613501613a30565b8152602001613523604051806040016040528060008152602001600081525090565b8152602001613530613a30565b815260200161353d613aa7565b81526040805180820182526000602080830182815283528085019290925282518084018452918201908152815290820152606001613579613a59565b81526020016135946040518060200160405280600081525090565b81526020016135af6040518060200160405280600081525090565b81526020016135ca6040518060200160405280600081525090565b81526020016135ec604051806040016040528060008152602001600081525090565b815260200161360e604051806040016040528060008152602001600081525090565b81526020016136296040518060200160405280600081525090565b81526020016136446040518060200160405280600081525090565b815260200161365f6040518060200160405280600081525090565b815260200161367a6040518060200160405280600081525090565b81526020016136956040518060200160405280600081525090565b81526020016136b06040518060200160405280600081525090565b81526020016136d2604051806040016040528060008152602001600081525090565b815260200161341f604051806040016040528060008152602001600081525090565b6040518060400160405280613707613ac8565b815260200161341f613ac8565b6040805161028081018252600061026082018181528252825160208082018552828252808401919091528351808201855282815283850152835190810190935282529060608201908152602001613769613ae6565b81526020016137846040518060200160405280600081525090565b815260200161379f6040518060200160405280600081525090565b81526020016137ba6040518060200160405280600081525090565b81526020016137d56040518060200160405280600081525090565b81526020016137f06040518060200160405280600081525090565b815260200161380b6040518060200160405280600081525090565b81526020016138266040518060200160405280600081525090565b81526020016138416040518060200160405280600081525090565b815260200161385c6040518060200160405280600081525090565b81526020016138776040518060200160405280600081525090565b81526020016138926040518060200160405280600081525090565b81526020016138ad6040518060200160405280600081525090565b81526020016136d26040518060200160405280600081525090565b60405180602001604052806001906020820280368337509192915050565b60405180606001604052806003906020820280368337509192915050565b60405180608001604052806004906020820280368337509192915050565b604051806101a00160405280600d905b60408051808201909152600080825260208201528152602001906001900390816139325790505090565b604051806101a00160405280600d905b60408051602081019091526000815281526020019060019003908161396c5790505090565b604080516101008101909152600060c0820181815260e08301919091528152600560208201613932565b6040805160e08101909152600060c08201908152815260056020820161396c565b6040805160808101825260009181018281526060820192909252908152600160208201613932565b604080516101408101909152600061010082018181526101208301919091528152600760208201613932565b6040805160c0810190915260006080820181815260a08301919091528152600360208201613932565b6040805160808101909152600060608201908152815260026020820161396c565b60405180604001604052806002905b613a916136f4565b815260200190600190039081613a895790505090565b6040805160a08101909152600060808201908152815260036020820161396c565b60405180604001604052806002906020820280368337509192915050565b60408051610140810190915260006101208201908152815260086020820161396c565b60008083601f840112613b1b57600080fd5b5081356001600160401b03811115613b3257600080fd5b6020830191508360208260051b8501011115613b4d57600080fd5b9250929050565b60008060008060408587031215613b6a57600080fd5b84356001600160401b0380821115613b8157600080fd5b613b8d88838901613b09565b90965094506020870135915080821115613ba657600080fd5b50613bb387828801613b09565b95989497509550505050565b634e487b7160e01b600052604160045260246000fd5b604080519081016001600160401b0381118282101715613bf757613bf7613bbf565b60405290565b6040516102a081016001600160401b0381118282101715613bf757613bf7613bbf565b60405161026081016001600160401b0381118282101715613bf757613bf7613bbf565b60405161016081016001600160401b0381118282101715613bf757613bf7613bbf565b604051608081016001600160401b0381118282101715613bf757613bf7613bbf565b600060208284031215613c9a57600080fd5b604051602081018181106001600160401b0382111715613cbc57613cbc613bbf565b6040529135825250919050565b600060408284031215613cdb57600080fd5b613ce3613bd5565b9050813581526020820135602082015292915050565b600082601f830112613d0a57600080fd5b613d12613bd5565b806080840185811115613d2457600080fd5b845b81811015613d4857613d388782613cc9565b8452602090930192604001613d26565b509095945050505050565b600082601f830112613d6457600080fd5b6040805161010081018181106001600160401b0382111715613d8857613d88613bbf565b825280610200850186811115613d9d57600080fd5b855b81811015613dc057613db18882613cc9565b83526020909201918401613d9f565b50919695505050505050565b600082601f830112613ddd57600080fd5b613de5613c66565b80610100840185811115613df857600080fd5b845b81811015613d4857613e0c8782613cc9565b8452602090930192604001613dfa565b600082601f830112613e2d57600080fd5b604051606081018181106001600160401b0382111715613e4f57613e4f613bbf565b604052806060840185811115613e6457600080fd5b845b81811015613e8657613e788782613c88565b835260209283019201613e66565b509195945050505050565b600082601f830112613ea257600080fd5b613eaa613bd5565b806040840185811115613ebc57600080fd5b845b81811015613d48578035845260209384019301613ebe565b600082601f830112613ee757600080fd5b613eef613bd5565b80610100840185811115613f0257600080fd5b845b81811015613d485760808188031215613f1d5760008081fd5b613f25613bd5565b613f2f8883613e91565b8152613f3e8860408401613e91565b6020828101919091529085529390930192608001613f04565b600082601f830112613f6857600080fd5b813560206001600160401b0380831115613f8457613f84613bbf565b8260051b604051601f19603f83011681018181108482111715613fa957613fa9613bbf565b604052938452858101830193838101925087851115613fc757600080fd5b83870191505b8482101561010657813583529183019190830190613fcd565b600082601f830112613ff757600080fd5b613fff613c66565b80608084018581111561401157600080fd5b845b81811015613d48576140258782613c88565b845260209384019301614013565b600082601f83011261404457600080fd5b60405160208082018281106001600160401b038211171561406757614067613bbf565b604052818482018681111561407b57600080fd5b855b8181101561409c5761408f8882613c88565b835291830191830161407d565b50929695505050505050565b60006105a082840312156140bb57600080fd5b6140c3613bfd565b905081356001600160401b038111156140db57600080fd5b6140e784828501613f57565b8252506140f78360208401613dcc565b602082015261012061410b84828501613cc9565b604083015261016061411f85828601613dcc565b606084015261026061413386828701613fe6565b6080850152614146866102e08701614033565b60a0850152614159866103008701614033565b60c085015261416c866103208701613e1c565b60e085015261417f866103808701613c88565b610100850152614193866103a08701613c88565b838501526141a5866103c08701613c88565b6101408501526141b9866103e08701613cc9565b828501526141cb866104208701613cc9565b6101808501526141df866104608701613c88565b6101a08501526141f3866104808701613c88565b6101c0850152614207866104a08701613c88565b6101e085015261421b866104c08701613c88565b61020085015261422f866104e08701613c88565b610220850152614243866105008701613c88565b610240850152614257866105208701613cc9565b8185015250505061426c836105608401613cc9565b61028082015292915050565b600082601f83011261428957600080fd5b6040516101208082018281106001600160401b03821117156142ad576142ad613bbf565b604052830181858211156142c057600080fd5b845b82811015613e86576142d48782613c88565b8252602091820191016142c2565b600061038082840312156142f557600080fd5b6142fd613c20565b90506143098383613c88565b81526143188360208401613c88565b602082015261432a8360408401613c88565b604082015261433c8360608401613c88565b606082015261434e8360808401614278565b60808201526101a061436284828501613c88565b60a08301526101c061437685828601613c88565b60c08401526101e061438a86828701613c88565b60e085015261020061439e87828801613c88565b6101008601526102206143b388828901613c88565b6101208701526102406143c889828a01613c88565b6101408801526143dc896102608a01613c88565b6101608801526143f0896102808a01613c88565b610180880152614404896102a08a01613c88565b86880152614416896102c08a01613c88565b85880152614428896102e08a01613c88565b8488015261443a896103008a01613c88565b8388015261444c896103208a01613c88565b8288015261445e896103408a01613cc9565b8188015250505050505092915050565b6000806000838503610a6081121561448557600080fd5b6106c08082121561449557600080fd5b61449d613c43565b915085358252602086013560208301526144ba8760408801613c88565b60408301526144cc8760608801613cf9565b60608301526144de8760e08801613d53565b60808301526144f1876102e08801613dcc565b60a0830152614504876103e08801613cc9565b60c0830152614517876104208801613dcc565b60e083015261452a876105208801613cc9565b61010083015261453e876105608801613e1c565b610120830152614552876105c08801613ed6565b6101408301529093508401356001600160401b0381111561457257600080fd5b61457e868287016140a8565b92505061458f856106e086016142e2565b90509250925092565b815181526020808301519082015260408101611601565b8060005b60068110156145e7576145d184835180518252602090810151910152565b60409390930192602091909101906001016145b3565b50505050565b8060005b60068110156145e7578151518452602093840193909101906001016145f1565b81516107208201908260005b600d8110156146515761463b82845180518252602090810151910152565b602092909201916040919091019060010161461d565b505050602080840151610340840160005b600d8110156146805782515182529183019190830190600101614662565b5050505060408301516146976104e08401826145af565b5060608301516146ab6106608401826145ed565b5092915050565b600061038082840312156146c557600080fd5b6146cf83836142e2565b9392505050565b634e487b7160e01b600052603260045260246000fd5b634e487b7160e01b600052601160045260246000fd5b81810381811115611601576116016146ec565b63ffffffff8181168382160190808211156146ab576146ab6146ec565b8082028115828204841417611601576116016146ec565b80820180821115611601576116016146ec56fe30644e72e131a029b85045b68181585d97816a916871ca8d3c208c16d87cfd4730644e72e131a029b85045b68181585d2833e84879b9709143e1f593f0000001a2646970667358221220fa40c33090f04ab4778cc1f315e3380abe18f07048a69f7a8fa590ed1b4a0cac64736f6c63430008110033",
  "linkReferences": {},
  "deployedLinkReferences": {}
}