{
  "_format": "hh-sol-artifact-1",
  "contractName": "DiamondInit",
  "sourceName": "cache/solpp-generated-contracts/zksync/DiamondInit.sol",
  "abi": [
    {
      "inputs": [],
      "stateMutability": "nonpayable",
      "type": "constructor"
    },
    {
      "inputs": [
        {
          "internalType": "contract Verifier",
          "name": "_verifier",
          "type": "address"
        },
        {
          "internalType": "address",
          "name": "_governor",
          "type": "address"
        },
        {
          "internalType": "address",
          "name": "_validator",
          "type": "address"
        },
        {
          "internalType": "bytes32",
          "name": "_genesisBlockHash",
          "type": "bytes32"
        },
        {
          "internalType": "uint64",
          "name": "_genesisIndexRepeatedStorageChanges",
          "type": "uint64"
        },
        {
          "internalType": "bytes32",
          "name": "_genesisBlockCommitment",
          "type": "bytes32"
        },
        {
          "internalType": "contract IAllowList",
          "name": "_allowList",
          "type": "address"
        },
        {
          "components": [
            {
              "internalType": "bytes32",
              "name": "recursionNodeLevelVkHash",
              "type": "bytes32"
            },
            {
              "internalType": "bytes32",
              "name": "recursionLeafLevelVkHash",
              "type": "bytes32"
            },
            {
              "internalType": "bytes32",
              "name": "recursionCircuitsSetVksHash",
              "type": "bytes32"
            }
          ],
          "internalType": "struct VerifierParams",
          "name": "_verifierParams",
          "type": "tuple"
        },
        {
          "internalType": "bool",
          "name": "_zkPorterIsAvailable",
          "type": "bool"
        },
        {
          "internalType": "bytes32",
          "name": "_l2BootloaderBytecodeHash",
          "type": "bytes32"
        },
        {
          "internalType": "bytes32",
          "name": "_l2DefaultAccountBytecodeHash",
          "type": "bytes32"
        }
      ],
      "name": "initialize",
      "outputs": [
        {
          "internalType": "bytes32",
          "name": "",
          "type": "bytes32"
        }
      ],
      "stateMutability": "nonpayable",
      "type": "function"
    }
  ],
  "bytecode": "0x608060405234801561001057600080fd5b5061001961001e565b610080565b7f8e94fed44239eb2314ab7a406345e6c5a8f0ccedf3b600de3d004e672c33abf480546001909155801561007d5760405162461bcd60e51b815260206004820152600260248201526118a160f11b604482015260640160405180910390fd5b50565b6103e88061008f6000396000f3fe608060405234801561001057600080fd5b506004361061002b5760003560e01c8063542e044814610030575b600080fd5b61004361003e3660046102ec565b610055565b60405190815260200160405180910390f35b600061005f61023d565b600a80546001600160a01b03808f166001600160a01b031992831617909255600780548e841692169190911790558a166000908152600960209081526040808320805460ff191660011790558051610100810182528381528083018d905267ffffffffffffffff8c1681830152606081018490527fc5d2460186f7233c927e7db2dcc703c0e500b653ca82273b7bfad8045d85a470608082015260a0810184905260c081019390935260e083018a90525161017e9183910160006101008201905067ffffffffffffffff8084511683526020840151602084015280604085015116604084015250606083015160608301526080830151608083015260a083015160a083015260c083015160c083015260e083015160e083015292915050565b60408051808303601f19018152918152815160209283012060008052600e83527fe710864318d4a32f37d6ce54cb3fadbef648dd12d8dbdf53973564d56b7f881c55601380546001600160a01b0319166001600160a01b038b161790558735601490815591880135601555870135601655869050506019805460ff19169515159590951790945550601791909155601855507f33774e659306e47509050e97cb651e731180a42d458212294d30751925c551a298975050505050505050565b7f8e94fed44239eb2314ab7a406345e6c5a8f0ccedf3b600de3d004e672c33abf480546001909155801561029c5760405162461bcd60e51b815260206004820152600260248201526118a160f11b604482015260640160405180910390fd5b50565b6001600160a01b038116811461029c57600080fd5b80356102bf8161029f565b919050565b6000606082840312156102d657600080fd5b50919050565b803580151581146102bf57600080fd5b60008060008060008060008060008060006101a08c8e03121561030e57600080fd5b8b356103198161029f565b9a5060208c01356103298161029f565b995060408c01356103398161029f565b985060608c0135975060808c013567ffffffffffffffff8116811461035d57600080fd5b965060a08c0135955061037260c08d016102b4565b94506103818d60e08e016102c4565b93506103906101408d016102dc565b92506101608c013591506101808c013590509295989b509295989b909396995056fea264697066735822122029e49196f3ce9415ac43923dc8a7683c44781066f030105fc2520672737fac1c64736f6c63430008110033",
  "linkReferences": {},
  "deployedLinkReferences": {}
}