{
  "_format": "hh-sol-artifact-1",
  "contractName": "GovernanceFacet",
  "sourceName": "cache/solpp-generated-contracts/zksync/facets/Governance.sol",
  "abi": [
    {
      "anonymous": false,
      "inputs": [
        {
          "indexed": false,
          "internalType": "bool",
          "name": "isPorterAvailable",
          "type": "bool"
        }
      ],
      "name": "IsPorterAvailableStatusUpdate",
      "type": "event"
    },
    {
      "anonymous": false,
      "inputs": [
        {
          "indexed": true,
          "internalType": "address",
          "name": "oldGovernor",
          "type": "address"
        },
        {
          "indexed": true,
          "internalType": "address",
          "name": "newGovernor",
          "type": "address"
        }
      ],
      "name": "NewGovernor",
      "type": "event"
    },
    {
      "anonymous": false,
      "inputs": [
        {
          "indexed": true,
          "internalType": "bytes32",
          "name": "previousBytecodeHash",
          "type": "bytes32"
        },
        {
          "indexed": true,
          "internalType": "bytes32",
          "name": "newBytecodeHash",
          "type": "bytes32"
        }
      ],
      "name": "NewL2BootloaderBytecodeHash",
      "type": "event"
    },
    {
      "anonymous": false,
      "inputs": [
        {
          "indexed": true,
          "internalType": "bytes32",
          "name": "previousBytecodeHash",
          "type": "bytes32"
        },
        {
          "indexed": true,
          "internalType": "bytes32",
          "name": "newBytecodeHash",
          "type": "bytes32"
        }
      ],
      "name": "NewL2DefaultAccountBytecodeHash",
      "type": "event"
    },
    {
      "anonymous": false,
      "inputs": [
        {
          "indexed": true,
          "internalType": "address",
          "name": "oldPendingGovernor",
          "type": "address"
        },
        {
          "indexed": true,
          "internalType": "address",
          "name": "newPendingGovernor",
          "type": "address"
        }
      ],
      "name": "NewPendingGovernor",
      "type": "event"
    },
    {
      "anonymous": false,
      "inputs": [
        {
          "indexed": true,
          "internalType": "address",
          "name": "oldVerifier",
          "type": "address"
        },
        {
          "indexed": true,
          "internalType": "address",
          "name": "newVerifier",
          "type": "address"
        }
      ],
      "name": "NewVerifier",
      "type": "event"
    },
    {
      "anonymous": false,
      "inputs": [
        {
          "components": [
            {
              "internalType": "bytes32",
              "name": "recursionNodeLevelVkHash",
              "type": "bytes32"
            },
            {
              "internalType": "bytes32",
              "name": "recursionLeafLevelVkHash",
              "type": "bytes32"
            },
            {
              "internalType": "bytes32",
              "name": "recursionCircuitsSetVksHash",
              "type": "bytes32"
            }
          ],
          "indexed": false,
          "internalType": "struct VerifierParams",
          "name": "oldVerifierParams",
          "type": "tuple"
        },
        {
          "components": [
            {
              "internalType": "bytes32",
              "name": "recursionNodeLevelVkHash",
              "type": "bytes32"
            },
            {
              "internalType": "bytes32",
              "name": "recursionLeafLevelVkHash",
              "type": "bytes32"
            },
            {
              "internalType": "bytes32",
              "name": "recursionCircuitsSetVksHash",
              "type": "bytes32"
            }
          ],
          "indexed": false,
          "internalType": "struct VerifierParams",
          "name": "newVerifierParams",
          "type": "tuple"
        }
      ],
      "name": "NewVerifierParams",
      "type": "event"
    },
    {
      "anonymous": false,
      "inputs": [
        {
          "indexed": true,
          "internalType": "address",
          "name": "validatorAddress",
          "type": "address"
        },
        {
          "indexed": false,
          "internalType": "bool",
          "name": "isActive",
          "type": "bool"
        }
      ],
      "name": "ValidatorStatusUpdate",
      "type": "event"
    },
    {
      "inputs": [],
      "name": "acceptGovernor",
      "outputs": [],
      "stateMutability": "nonpayable",
      "type": "function"
    },
    {
      "inputs": [
        {
          "internalType": "bytes32",
          "name": "_l2BootloaderBytecodeHash",
          "type": "bytes32"
        }
      ],
      "name": "setL2BootloaderBytecodeHash",
      "outputs": [],
      "stateMutability": "nonpayable",
      "type": "function"
    },
    {
      "inputs": [
        {
          "internalType": "bytes32",
          "name": "_l2DefaultAccountBytecodeHash",
          "type": "bytes32"
        }
      ],
      "name": "setL2DefaultAccountBytecodeHash",
      "outputs": [],
      "stateMutability": "nonpayable",
      "type": "function"
    },
    {
      "inputs": [
        {
          "internalType": "address",
          "name": "_newPendingGovernor",
          "type": "address"
        }
      ],
      "name": "setPendingGovernor",
      "outputs": [],
      "stateMutability": "nonpayable",
      "type": "function"
    },
    {
      "inputs": [
        {
          "internalType": "bool",
          "name": "_zkPorterIsAvailable",
          "type": "bool"
        }
      ],
      "name": "setPorterAvailability",
      "outputs": [],
      "stateMutability": "nonpayable",
      "type": "function"
    },
    {
      "inputs": [
        {
          "internalType": "address",
          "name": "_validator",
          "type": "address"
        },
        {
          "internalType": "bool",
          "name": "_active",
          "type": "bool"
        }
      ],
      "name": "setValidator",
      "outputs": [],
      "stateMutability": "nonpayable",
      "type": "function"
    },
    {
      "inputs": [
        {
          "internalType": "contract Verifier",
          "name": "_newVerifier",
          "type": "address"
        }
      ],
      "name": "setVerifier",
      "outputs": [],
      "stateMutability": "nonpayable",
      "type": "function"
    },
    {
      "inputs": [
        {
          "components": [
            {
              "internalType": "bytes32",
              "name": "recursionNodeLevelVkHash",
              "type": "bytes32"
            },
            {
              "internalType": "bytes32",
              "name": "recursionLeafLevelVkHash",
              "type": "bytes32"
            },
            {
              "internalType": "bytes32",
              "name": "recursionCircuitsSetVksHash",
              "type": "bytes32"
            }
          ],
          "internalType": "struct VerifierParams",
          "name": "_newVerifierParams",
          "type": "tuple"
        }
      ],
      "name": "setVerifierParams",
      "outputs": [],
      "stateMutability": "nonpayable",
      "type": "function"
    }
  ],
  "bytecode": "0x608060405234801561001057600080fd5b50610863806100206000396000f3fe608060405234801561001057600080fd5b50600436106100885760003560e01c80635437988d1161005b5780635437988d146100db57806386cb9909146100ee578063e58bb63914610101578063f235757f1461010957600080fd5b80630707ac091461008d5780630b508883146100a25780631cc5d103146100b55780634623c91d146100c8575b600080fd5b6100a061009b3660046106e0565b61011c565b005b6100a06100b03660046106f9565b610199565b6100a06100c3366004610726565b610262565b6100a06100d636600461075d565b6102e4565b6100a06100e9366004610792565b610393565b6100a06100fc3660046106e0565b610425565b6100a0610498565b6100a0610117366004610792565b610589565b6007546001600160a01b0316331461014f5760405162461bcd60e51b8152600401610146906107af565b60405180910390fd5b6101588161061b565b601854818114610195576018829055604051829082907f36df93a47cc02081d9d8208022ab736fdf98fac566e5fc6f5762bf7666e521f390600090a35b5050565b6007546001600160a01b031633146101c35760405162461bcd60e51b8152600401610146906107af565b60408051606081018252601480548252601580546020808501919091526016805485870152863584559086013590915592840135909255908290505060408051825181526020808401518183015282840151828401528435606083015284013560808201529083013560a08201527f4c055dbc5f14dcb6e081c9421d9657d950dcd6372f6db0a714b9135171cbc15d9060c00160405180910390a15050565b6007546001600160a01b0316331461028c5760405162461bcd60e51b8152600401610146906107af565b60195460ff161515811515146102e1576019805460ff19168215159081179091556040519081527f036b81a8a07344698cb5aa4142c5669a9317c9ce905264a08f0b9f93318839369060200160405180910390a15b50565b6007546001600160a01b0316331461030e5760405162461bcd60e51b8152600401610146906107af565b6001600160a01b03821660009081526009602052604090205460ff16151581151514610195576001600160a01b038216600081815260096020908152604091829020805460ff191685151590811790915591519182527f065b77b53864e46fda3d8986acb51696223d6dde7ced42441eb150bae6d48136910160405180910390a25050565b6007546001600160a01b031633146103bd5760405162461bcd60e51b8152600401610146906107af565b600a546001600160a01b03908116908216811461019557600a80546001600160a01b0319166001600160a01b0384811691821790925560405190918316907f2ff4895c300d6993c27f2bb507b4b59d29464dc640af727383451365631ba8b290600090a35050565b6007546001600160a01b0316331461044f5760405162461bcd60e51b8152600401610146906107af565b6104588161061b565b601754818114610195576017829055604051829082907f271b33af94e3f065ecd8659833e6b1daf851f063700c36ddefefab35d4ce474690600090a35050565b6008546001600160a01b03163381146104d85760405162461bcd60e51b81526020600482015260026024820152611b8d60f21b6044820152606401610146565b6007546001600160a01b038281169116146102e157600780546001600160a01b038381166001600160a01b03198084168217909455600880549094169093556040519116916000917f7d767be5a57784412a13945bd5114db84487d2b007bfcdb2f449fc9ea35437f7908390a3816001600160a01b0316816001600160a01b03167f1ba669d4a78521f2ad26e8e0fcbcdd626a63f34d68f326bc232a3abe2a5d042a60405160405180910390a35050565b6007546001600160a01b031633146105b35760405162461bcd60e51b8152600401610146906107af565b6008546001600160a01b03908116908216811461019557600880546001600160a01b0319166001600160a01b0384811691821790925560405190918316907f7d767be5a57784412a13945bd5114db84487d2b007bfcdb2f449fc9ea35437f790600090a35050565b600081901a60018114801561063f57506001600160f81b0319600183901a60f81b16155b6106705760405162461bcd60e51b81526020600482015260026024820152613d3360f11b6044820152606401610146565b600261067b836106b9565b61068591906107cb565b6001146101955760405162461bcd60e51b8152602060048201526002602482015261757960f01b6044820152606401610146565b60008160031a8260026106d091901a610100610803565b6106da919061081a565b92915050565b6000602082840312156106f257600080fd5b5035919050565b60006060828403121561070b57600080fd5b50919050565b8035801515811461072157600080fd5b919050565b60006020828403121561073857600080fd5b61074182610711565b9392505050565b6001600160a01b03811681146102e157600080fd5b6000806040838503121561077057600080fd5b823561077b81610748565b915061078960208401610711565b90509250929050565b6000602082840312156107a457600080fd5b813561074181610748565b602080825260029082015261316760f01b604082015260600190565b6000826107e857634e487b7160e01b600052601260045260246000fd5b500690565b634e487b7160e01b600052601160045260246000fd5b80820281158282048414176106da576106da6107ed565b808201808211156106da576106da6107ed56fea26469706673582212208254418a3d7a1d89a3c7a4cc5dd65daa3d277e7bf98544400a332ded7744d5a864736f6c63430008110033",
  "linkReferences": {},
  "deployedLinkReferences": {}
}