{
  "_format": "hh-sol-artifact-1",
  "contractName": "MerkleTest",
  "sourceName": "cache/solpp-generated-contracts/dev-contracts/test/MerkleTest.sol",
  "abi": [
    {
      "inputs": [
        {
          "internalType": "bytes32[]",
          "name": "_path",
          "type": "bytes32[]"
        },
        {
          "internalType": "uint256",
          "name": "_index",
          "type": "uint256"
        },
        {
          "internalType": "bytes32",
          "name": "_itemHash",
          "type": "bytes32"
        }
      ],
      "name": "calculateRoot",
      "outputs": [
        {
          "internalType": "bytes32",
          "name": "",
          "type": "bytes32"
        }
      ],
      "stateMutability": "pure",
      "type": "function"
    }
  ],
  "bytecode": "0x608060405234801561001057600080fd5b50610411806100206000396000f3fe608060405234801561001057600080fd5b506004361061002b5760003560e01c80637a59206514610030575b600080fd5b61004361003e3660046101f6565b610055565b60405190815260200160405180910390f35b60006100638585858561006c565b95945050505050565b600083806100a65760405162461bcd60e51b8152602060048201526002602482015261786360f01b60448201526064015b60405180910390fd5b61010081106100dc5760405162461bcd60e51b8152602060048201526002602482015261189d60f21b604482015260640161009d565b6100e7816002610374565b841061011a5760405162461bcd60e51b8152602060048201526002602482015261383d60f11b604482015260640161009d565b8260005b828110156101eb5761013160028761039d565b600003610189578188888381811061014b5761014b6103b1565b9050602002013560405160200161016c929190918252602082015260400190565b6040516020818303038152906040528051906020012091506101d6565b87878281811061019b5761019b6103b1565b90506020020135826040516020016101bd929190918252602082015260400190565b6040516020818303038152906040528051906020012091505b6101e16002876103c7565b955060010161011e565b509695505050505050565b6000806000806060858703121561020c57600080fd5b843567ffffffffffffffff8082111561022457600080fd5b818701915087601f83011261023857600080fd5b81358181111561024757600080fd5b8860208260051b850101111561025c57600080fd5b6020928301999098509187013596604001359550909350505050565b634e487b7160e01b600052601160045260246000fd5b600181815b808511156102c95781600019048211156102af576102af610278565b808516156102bc57918102915b93841c9390800290610293565b509250929050565b6000826102e05750600161036e565b816102ed5750600061036e565b8160018114610303576002811461030d57610329565b600191505061036e565b60ff84111561031e5761031e610278565b50506001821b61036e565b5060208310610133831016604e8410600b841016171561034c575081810a61036e565b610356838361028e565b806000190482111561036a5761036a610278565b0290505b92915050565b600061038083836102d1565b9392505050565b634e487b7160e01b600052601260045260246000fd5b6000826103ac576103ac610387565b500690565b634e487b7160e01b600052603260045260246000fd5b6000826103d6576103d6610387565b50049056fea2646970667358221220ff59046b8efd2c91553343637d6e70b1a3fd470c024f3e5c9d625e1ff94405c264736f6c63430008110033",
  "linkReferences": {},
  "deployedLinkReferences": {}
}