{
  "_format": "hh-sol-artifact-1",
  "contractName": "ExecutorFacet",
  "sourceName": "cache/solpp-generated-contracts/zksync/facets/Executor.sol",
  "abi": [
    {
      "anonymous": false,
      "inputs": [
        {
          "indexed": true,
          "internalType": "uint256",
          "name": "blockNumber",
          "type": "uint256"
        },
        {
          "indexed": true,
          "internalType": "bytes32",
          "name": "blockHash",
          "type": "bytes32"
        },
        {
          "indexed": true,
          "internalType": "bytes32",
          "name": "commitment",
          "type": "bytes32"
        }
      ],
      "name": "BlockCommit",
      "type": "event"
    },
    {
      "anonymous": false,
      "inputs": [
        {
          "indexed": true,
          "internalType": "uint256",
          "name": "blockNumber",
          "type": "uint256"
        },
        {
          "indexed": true,
          "internalType": "bytes32",
          "name": "blockHash",
          "type": "bytes32"
        },
        {
          "indexed": true,
          "internalType": "bytes32",
          "name": "commitment",
          "type": "bytes32"
        }
      ],
      "name": "BlockExecution",
      "type": "event"
    },
    {
      "anonymous": false,
      "inputs": [
        {
          "indexed": false,
          "internalType": "uint256",
          "name": "totalBlocksCommitted",
          "type": "uint256"
        },
        {
          "indexed": false,
          "internalType": "uint256",
          "name": "totalBlocksVerified",
          "type": "uint256"
        },
        {
          "indexed": false,
          "internalType": "uint256",
          "name": "totalBlocksExecuted",
          "type": "uint256"
        }
      ],
      "name": "BlocksRevert",
      "type": "event"
    },
    {
      "anonymous": false,
      "inputs": [
        {
          "indexed": true,
          "internalType": "uint256",
          "name": "previousLastVerifiedBlock",
          "type": "uint256"
        },
        {
          "indexed": true,
          "internalType": "uint256",
          "name": "currentLastVerifiedBlock",
          "type": "uint256"
        }
      ],
      "name": "BlocksVerification",
      "type": "event"
    },
    {
      "inputs": [
        {
          "components": [
            {
              "internalType": "uint64",
              "name": "blockNumber",
              "type": "uint64"
            },
            {
              "internalType": "bytes32",
              "name": "blockHash",
              "type": "bytes32"
            },
            {
              "internalType": "uint64",
              "name": "indexRepeatedStorageChanges",
              "type": "uint64"
            },
            {
              "internalType": "uint256",
              "name": "numberOfLayer1Txs",
              "type": "uint256"
            },
            {
              "internalType": "bytes32",
              "name": "priorityOperationsHash",
              "type": "bytes32"
            },
            {
              "internalType": "bytes32",
              "name": "l2LogsTreeRoot",
              "type": "bytes32"
            },
            {
              "internalType": "uint256",
              "name": "timestamp",
              "type": "uint256"
            },
            {
              "internalType": "bytes32",
              "name": "commitment",
              "type": "bytes32"
            }
          ],
          "internalType": "struct IExecutor.StoredBlockInfo",
          "name": "_lastCommittedBlockData",
          "type": "tuple"
        },
        {
          "components": [
            {
              "internalType": "uint64",
              "name": "blockNumber",
              "type": "uint64"
            },
            {
              "internalType": "uint64",
              "name": "timestamp",
              "type": "uint64"
            },
            {
              "internalType": "uint64",
              "name": "indexRepeatedStorageChanges",
              "type": "uint64"
            },
            {
              "internalType": "bytes32",
              "name": "newStateRoot",
              "type": "bytes32"
            },
            {
              "internalType": "uint256",
              "name": "numberOfLayer1Txs",
              "type": "uint256"
            },
            {
              "internalType": "bytes32",
              "name": "l2LogsTreeRoot",
              "type": "bytes32"
            },
            {
              "internalType": "bytes32",
              "name": "priorityOperationsHash",
              "type": "bytes32"
            },
            {
              "internalType": "bytes",
              "name": "initialStorageChanges",
              "type": "bytes"
            },
            {
              "internalType": "bytes",
              "name": "repeatedStorageChanges",
              "type": "bytes"
            },
            {
              "internalType": "bytes",
              "name": "l2Logs",
              "type": "bytes"
            },
            {
              "internalType": "bytes[]",
              "name": "l2ArbitraryLengthMessages",
              "type": "bytes[]"
            },
            {
              "internalType": "bytes[]",
              "name": "factoryDeps",
              "type": "bytes[]"
            }
          ],
          "internalType": "struct IExecutor.CommitBlockInfo[]",
          "name": "_newBlocksData",
          "type": "tuple[]"
        }
      ],
      "name": "commitBlocks",
      "outputs": [],
      "stateMutability": "nonpayable",
      "type": "function"
    },
    {
      "inputs": [
        {
          "components": [
            {
              "internalType": "uint64",
              "name": "blockNumber",
              "type": "uint64"
            },
            {
              "internalType": "bytes32",
              "name": "blockHash",
              "type": "bytes32"
            },
            {
              "internalType": "uint64",
              "name": "indexRepeatedStorageChanges",
              "type": "uint64"
            },
            {
              "internalType": "uint256",
              "name": "numberOfLayer1Txs",
              "type": "uint256"
            },
            {
              "internalType": "bytes32",
              "name": "priorityOperationsHash",
              "type": "bytes32"
            },
            {
              "internalType": "bytes32",
              "name": "l2LogsTreeRoot",
              "type": "bytes32"
            },
            {
              "internalType": "uint256",
              "name": "timestamp",
              "type": "uint256"
            },
            {
              "internalType": "bytes32",
              "name": "commitment",
              "type": "bytes32"
            }
          ],
          "internalType": "struct IExecutor.StoredBlockInfo[]",
          "name": "_blocksData",
          "type": "tuple[]"
        }
      ],
      "name": "executeBlocks",
      "outputs": [],
      "stateMutability": "nonpayable",
      "type": "function"
    },
    {
      "inputs": [
        {
          "components": [
            {
              "internalType": "uint64",
              "name": "blockNumber",
              "type": "uint64"
            },
            {
              "internalType": "bytes32",
              "name": "blockHash",
              "type": "bytes32"
            },
            {
              "internalType": "uint64",
              "name": "indexRepeatedStorageChanges",
              "type": "uint64"
            },
            {
              "internalType": "uint256",
              "name": "numberOfLayer1Txs",
              "type": "uint256"
            },
            {
              "internalType": "bytes32",
              "name": "priorityOperationsHash",
              "type": "bytes32"
            },
            {
              "internalType": "bytes32",
              "name": "l2LogsTreeRoot",
              "type": "bytes32"
            },
            {
              "internalType": "uint256",
              "name": "timestamp",
              "type": "uint256"
            },
            {
              "internalType": "bytes32",
              "name": "commitment",
              "type": "bytes32"
            }
          ],
          "internalType": "struct IExecutor.StoredBlockInfo",
          "name": "_prevBlock",
          "type": "tuple"
        },
        {
          "components": [
            {
              "internalType": "uint64",
              "name": "blockNumber",
              "type": "uint64"
            },
            {
              "internalType": "bytes32",
              "name": "blockHash",
              "type": "bytes32"
            },
            {
              "internalType": "uint64",
              "name": "indexRepeatedStorageChanges",
              "type": "uint64"
            },
            {
              "internalType": "uint256",
              "name": "numberOfLayer1Txs",
              "type": "uint256"
            },
            {
              "internalType": "bytes32",
              "name": "priorityOperationsHash",
              "type": "bytes32"
            },
            {
              "internalType": "bytes32",
              "name": "l2LogsTreeRoot",
              "type": "bytes32"
            },
            {
              "internalType": "uint256",
              "name": "timestamp",
              "type": "uint256"
            },
            {
              "internalType": "bytes32",
              "name": "commitment",
              "type": "bytes32"
            }
          ],
          "internalType": "struct IExecutor.StoredBlockInfo[]",
          "name": "_committedBlocks",
          "type": "tuple[]"
        },
        {
          "components": [
            {
              "internalType": "uint256[]",
              "name": "recurisiveAggregationInput",
              "type": "uint256[]"
            },
            {
              "internalType": "uint256[]",
              "name": "serializedProof",
              "type": "uint256[]"
            }
          ],
          "internalType": "struct IExecutor.ProofInput",
          "name": "_proof",
          "type": "tuple"
        }
      ],
      "name": "proveBlocks",
      "outputs": [],
      "stateMutability": "nonpayable",
      "type": "function"
    },
    {
      "inputs": [
        {
          "internalType": "uint256",
          "name": "_newLastBlock",
          "type": "uint256"
        }
      ],
      "name": "revertBlocks",
      "outputs": [],
      "stateMutability": "nonpayable",
      "type": "function"
    }
  ],
  "bytecode": "0x608060405234801561001057600080fd5b50611ad3806100206000396000f3fe608060405234801561001057600080fd5b506004361061004c5760003560e01c80630c4dd810146100515780637739cbe714610066578063a9a2d18a14610079578063ce9dcf161461008c575b600080fd5b61006461005f3660046115f0565b61009f565b005b6100646100743660046116c3565b610234565b61006461008736600461174c565b6104cd565b61006461009a366004611765565b6105f9565b600080516020611a7e83398151915254600181146100d85760405162461bcd60e51b81526004016100cf906117a6565b60405180910390fd5b6002600080516020611a7e833981519152553360009081526009602052604090205460ff166101195760405162461bcd60e51b81526004016100cf906117c2565b610122846107a9565b600d546000908152600e6020526040902054146101655760405162461bcd60e51b81526020600482015260016024820152606960f81b60448201526064016100cf565b8160005b818110156102095761019e86868684818110610187576101876117de565b905060200281019061019991906117f4565b61083a565b95506101a9866107a9565b86516001600160401b039081166000908152600e602090815260408083209490945560e08a0151908a01518a5194519194909316917f8f2916b2f2d78cc5890ead36c06c0f6d5d112c7e103589947e8e2f0d6eddb76391a4600101610169565b50600d5461021890829061182b565b600d5550506001600080516020611a7e83398151915255505050565b600080516020611a7e83398151915254600181146102645760405162461bcd60e51b81526004016100cf906117a6565b6002600080516020611a7e833981519152553360009081526009602052604090205460ff166102a55760405162461bcd60e51b81526004016100cf906117c2565b600c5460408051606081018252601454815260155460208201526016549181019190915284906000826001600160401b038111156102e5576102e5611513565b60405190808252806020026020018201604052801561030e578160200160208202803683370190505b506000858152600e6020526040902054909150610338610333368c90038c018c61183e565b6107a9565b1461036a5760405162461bcd60e51b8152602060048201526002602482015261743160f01b60448201526064016100cf565b60e089013560005b8481101561044457600186016000908152600e60205260409020546103b98b8b848181106103a2576103a26117de565b90506101000201803603810190610333919061183e565b146103eb5760405162461bcd60e51b81526020600482015260026024820152616f3160f01b60448201526064016100cf565b60008a8a838181106103ff576103ff6117de565b9050610100020160e00135905061041883828b88610b5f565b84838151811061042a5761042a6117de565b602090810291909101015260019687019690925001610372565b50600d5485111561047b5760405162461bcd60e51b81526020600482015260016024820152607160f81b60448201526064016100cf565b600c546040518691907f22c9005dd88c18b552a1cd7e8b3b937fcde9ca69213c1f658f54d572e4877a8190600090a3505050600c9190915550506001600080516020611a7e8339815191525550505050565b600080516020611a7e83398151915254600181146104fd5760405162461bcd60e51b81526004016100cf906117a6565b6002600080516020611a7e833981519152553360009081526009602052604090205460ff1661053e5760405162461bcd60e51b81526004016100cf906117c2565b600d5482106105745760405162461bcd60e51b8152602060048201526002602482015261763160f01b60448201526064016100cf565b6000610585836000600b0154610bbf565b600c5490915081101561059857600c8190555b600d819055600c54600b546040805184815260208101939093528201527f8bd4b15ea7d1bc41ea9abc3fc487ccb89cd678a00786584714faa9d751c84ee59060600160405180910390a1506001600080516020611a7e833981519152555050565b600080516020611a7e83398151915254600181146106295760405162461bcd60e51b81526004016100cf906117a6565b6002600080516020611a7e833981519152553360009081526009602052604090205460ff1661066a5760405162461bcd60e51b81526004016100cf906117c2565b8160005b81811015610748576106a885858381811061068b5761068b6117de565b905061010002018036038101906106a2919061183e565b82610bd7565b8484828181106106ba576106ba6117de565b9050610100020160e001358585838181106106d7576106d76117de565b90506101000201602001358686848181106106f4576106f46117de565b61070b92602061010090920201908101915061185b565b6001600160401b03167f2402307311a4d6604e4e7b4c8a15a7e1213edb39c16a31efa70afb06030d316560405160405180910390a460010161066e565b50600b5461075790829061182b565b600b819055600c5410156107915760405162461bcd60e51b81526020600482015260016024820152603760f91b60448201526064016100cf565b506001600080516020611a7e83398151915255505050565b60008160405160200161081d91906000610100820190506001600160401b038084511683526020840151602084015280604085015116604084015250606083015160608301526080830151608083015260a083015160a083015260c083015160c083015260e083015160e083015292915050565b604051602081830303815290604052805190602001209050919050565b6040805161010081018252600080825260208201819052918101829052606081018290526080810182905260a0810182905260c0810182905260e08101919091528251610888906001611876565b6001600160401b031661089e602084018461185b565b6001600160401b0316146108d85760405162461bcd60e51b81526020600482015260016024820152603360f91b60448201526064016100cf565b6000806000806108e786610ce2565b9350935093509350818760200151146109265760405162461bcd60e51b81526020600482015260016024820152601b60fa1b60448201526064016100cf565b8560c00135831461095d5760405162461bcd60e51b81526020600482015260016024820152601d60fa1b60448201526064016100cf565b8560800135841461096d57600080fd5b61097d604087016020880161185b565b6001600160401b0316811461099157600080fd5b6000816109a26301e133804261189d565b1115905060006109b66301e133804261182b565b8311159050816109ec5760405162461bcd60e51b81526020600482015260016024820152600d60fb1b60448201526064016100cf565b80610a1e5760405162461bcd60e51b8152602060048201526002602482015261683160f01b60448201526064016100cf565b6000610a2d60e08a018a6118b0565b610a3c916004916000916118f6565b610a4591611920565b60e01c9050610a5a60608a0160408b0161185b565b6001600160401b0316818b604001516001600160401b0316610a7c919061182b565b14610aae5760405162461bcd60e51b8152602060048201526002602482015261797160f01b60448201526064016100cf565b5050506000610abc876110bf565b60408051610100810190915290915080610ad960208a018a61185b565b6001600160401b031681526060890180356020830152604091820191610b0191908b0161185b565b6001600160401b03168152602001886080013581526020018860c0013581526020018860a001358152602001886020016020810190610b40919061185b565b6001600160401b03168152602001919091529450505050505b92915050565b8051602082015160408301516000926001600160f81b0392889288929190610b878980611950565b604051602001610b9d9796959493929190611999565b60408051601f1981840301815291905280516020909101201695945050505050565b6000818310610bce5782610bd0565b815b9392505050565b8151600b546001600160401b0390911690610bf390839061182b565b610bfe90600161182b565b8114610c305760405162461bcd60e51b81526020600482015260016024820152606b60f81b60448201526064016100cf565b6000818152600e6020526040902054610c48846107a9565b14610c7d5760405162461bcd60e51b8152602060048201526005602482015264065786531360dc1b60448201526064016100cf565b6000610c8c8460600151611172565b905083608001518114610cc55760405162461bcd60e51b81526020600482015260016024820152600f60fb1b60448201526064016100cf565b5060a0909201516000928352600f60205260409092209190915550565b600080808080610cf66101208701876118b0565b610d049160049082906118f6565b8080601f016020809104026020016040519081016040528093929190818152602001838380828437600092018290525093945036939250610d4c915050610140890189611950565b90925090506000803681610d646101608d018d611950565b7fc5d2460186f7233c927e7db2dcc703c0e500b653ca82273b7bfad8045d85a4709b5090925090506000805b8851811015611015576000610db88a610daa84600461182b565b601491810182015192910190565b509050618007196001600160a01b03821601610e69576000610ded8b610ddf85603861182b565b602091810182015192910190565b509050808a8a8a818110610e0357610e036117de565b9050602002810190610e1591906118b0565b604051610e239291906119e7565b604051809103902014610e5d5760405162461bcd60e51b8152602060048201526002602482015261359960f11b60448201526064016100cf565b6001880197505061100c565b618000196001600160a01b03821601610ed6576000610e8d8b610ddf85601861182b565b5090508d81604051602001610eac929190918252602082015260400190565b604051602081830303815290604052805190602001209d50610ece8f60010190565b9e505061100c565b61800a196001600160a01b03821601610f49578515610f1c5760405162461bcd60e51b81526020600482015260026024820152610ccf60f31b60448201526064016100cf565b610f2b8a610ddf84601861182b565b509a50610f3d8a610ddf84603861182b565b509b506001955061100c565b618003196001600160a01b0382160161100c576000610f6d8b610ddf85601861182b565b509050610fd1868686818110610f8557610f856117de565b9050602002810190610f9791906118b0565b8080601f0160208091040260200160405190810160405280939291908181526020018383808284376000920191909152506111fa92505050565b81146110045760405162461bcd60e51b81526020600482015260026024820152616b3360f01b60448201526064016100cf565b600184019350505b50605801610d90565b5080821461104a5760405162461bcd60e51b8152602060048201526002602482015261796d60f01b60448201526064016100cf565b84861461107e5760405162461bcd60e51b81526020600482015260026024820152611c1b60f21b60448201526064016100cf565b836110b05760405162461bcd60e51b8152602060048201526002602482015261627960f01b60448201526064016100cf565b50505050505050509193509193565b6000806110cb83611333565b805190602001209050600061111b60195460175460185460405160ff909316151560f81b602084015260218301919091526041820152606090606101604051602081830303815290604052905090565b805190602001209050600061112f8561138d565b8051602091820120604080519283018690528201849052606082018190529150608001604051602081830303815290604052805190602001209350505050919050565b7fc5d2460186f7233c927e7db2dcc703c0e500b653ca82273b7bfad8045d85a47060005b828110156111f45760006111aa601061143f565b80516040519192506111ca91859190602001918252602082015260400190565b604051602081830303815290604052805190602001209250506111ed8160010190565b9050611196565b50919050565b60006020825161120a9190611a0d565b1561123c5760405162461bcd60e51b8152602060048201526002602482015261706f60f01b60448201526064016100cf565b60006020835161124c9190611a21565b90506201000081106112855760405162461bcd60e51b8152602060048201526002602482015261070760f41b60448201526064016100cf565b611290600282611a0d565b6001146112c45760405162461bcd60e51b8152602060048201526002602482015261383960f11b60448201526064016100cf565b6002836040516112d49190611a35565b602060405180830381855afa1580156112f1573d6000803e3d6000fd5b5050506040513d601f19601f820116820180604052508101906113149190611a64565b60e09190911b6001600160e01b039190911617600160f81b1792915050565b60606113448282016040840161185b565b60405160c09190911b6001600160c01b03191660208201526060830135602882015260006048820181905260508201526070016040516020818303038152906040529050919050565b6060600061139e60e08401846118b0565b6040516113ac9291906119e7565b604051908190039020905060006113c76101008501856118b0565b6040516113d59291906119e7565b604051908190039020905060006113f06101208601866118b0565b6040516113fe9291906119e7565b6040805191829003822060a0978801356020840152828201526060820194909452608080820193909352835180820390930183529490940190915292915050565b604080516060810182526000808252602082018190529181019190915260028201546001830154036114975760405162461bcd60e51b81526020600482015260016024820152607360f81b60448201526064016100cf565b506002810154600081815260208381526040808320815160608101835281548152600180830180546001600160401b038116848801526801000000000000000090046001600160c01b031694830194909452868652938790529084905592905590919061150590829061182b565b836002018190555050919050565b634e487b7160e01b600052604160045260246000fd5b80356001600160401b038116811461154057600080fd5b919050565b600061010080838503121561155957600080fd5b604051908101906001600160401b038211818310171561158957634e487b7160e01b600052604160045260246000fd5b8160405280925061159984611529565b8152602084013560208201526115b160408501611529565b6040820152606084013560608201526080840135608082015260a084013560a082015260c084013560c082015260e084013560e0820152505092915050565b6000806000610120848603121561160657600080fd5b6116108585611545565b92506101008401356001600160401b038082111561162d57600080fd5b818601915086601f83011261164157600080fd5b81358181111561165057600080fd5b8760208260051b850101111561166557600080fd5b6020830194508093505050509250925092565b60008083601f84011261168a57600080fd5b5081356001600160401b038111156116a157600080fd5b6020830191508360208260081b85010111156116bc57600080fd5b9250929050565b6000806000808486036101408112156116db57600080fd5b610100808212156116eb57600080fd5b86955085013590506001600160401b038082111561170857600080fd5b61171488838901611678565b909550935061012087013591508082111561172e57600080fd5b5085016040818803121561174157600080fd5b939692955090935050565b60006020828403121561175e57600080fd5b5035919050565b6000806020838503121561177857600080fd5b82356001600160401b0381111561178e57600080fd5b61179a85828601611678565b90969095509350505050565b602080825260029082015261723160f01b604082015260600190565b602080825260029082015261062d60f31b604082015260600190565b634e487b7160e01b600052603260045260246000fd5b6000823561017e1983360301811261180b57600080fd5b9190910192915050565b634e487b7160e01b600052601160045260246000fd5b80820180821115610b5957610b59611815565b6000610100828403121561185157600080fd5b610bd08383611545565b60006020828403121561186d57600080fd5b610bd082611529565b6001600160401b0381811683821601908082111561189657611896611815565b5092915050565b81810381811115610b5957610b59611815565b6000808335601e198436030181126118c757600080fd5b8301803591506001600160401b038211156118e157600080fd5b6020019150368190038213156116bc57600080fd5b6000808585111561190657600080fd5b8386111561191357600080fd5b5050820193919092039150565b6001600160e01b031981358181169160048510156119485780818660040360031b1b83161692505b505092915050565b6000808335601e1984360301811261196757600080fd5b8301803591506001600160401b0382111561198157600080fd5b6020019150600581901b36038213156116bc57600080fd5b878152866020820152856040820152846060820152836080820152600060018060fb1b038311156119c957600080fd5b8260051b808560a08501379190910160a00198975050505050505050565b8183823760009101908152919050565b634e487b7160e01b600052601260045260246000fd5b600082611a1c57611a1c6119f7565b500690565b600082611a3057611a306119f7565b500490565b6000825160005b81811015611a565760208186018101518583015201611a3c565b506000920191825250919050565b600060208284031215611a7657600080fd5b505191905056fe8e94fed44239eb2314ab7a406345e6c5a8f0ccedf3b600de3d004e672c33abf4a2646970667358221220acfcdcf1e8c51333cde40b9465ee154f91afb069a166bee28a822e3fec56cf3564736f6c63430008110033",
  "linkReferences": {},
  "deployedLinkReferences": {}
}