{
  "_format": "hh-sol-artifact-1",
  "contractName": "UnsafeBytesTest",
  "sourceName": "cache/solpp-generated-contracts/dev-contracts/test/UnsafeBytesTest.sol",
  "abi": [
    {
      "inputs": [
        {
          "internalType": "bytes",
          "name": "_bytes",
          "type": "bytes"
        },
        {
          "internalType": "uint256",
          "name": "_start",
          "type": "uint256"
        }
      ],
      "name": "readAddress",
      "outputs": [
        {
          "internalType": "address",
          "name": "readValue",
          "type": "address"
        },
        {
          "internalType": "uint256",
          "name": "offset",
          "type": "uint256"
        }
      ],
      "stateMutability": "pure",
      "type": "function"
    },
    {
      "inputs": [
        {
          "internalType": "bytes",
          "name": "_bytes",
          "type": "bytes"
        },
        {
          "internalType": "uint256",
          "name": "_start",
          "type": "uint256"
        }
      ],
      "name": "readBytes32",
      "outputs": [
        {
          "internalType": "bytes32",
          "name": "readValue",
          "type": "bytes32"
        },
        {
          "internalType": "uint256",
          "name": "offset",
          "type": "uint256"
        }
      ],
      "stateMutability": "pure",
      "type": "function"
    },
    {
      "inputs": [
        {
          "internalType": "bytes",
          "name": "_bytes",
          "type": "bytes"
        },
        {
          "internalType": "uint256",
          "name": "_start",
          "type": "uint256"
        }
      ],
      "name": "readUint256",
      "outputs": [
        {
          "internalType": "uint256",
          "name": "readValue",
          "type": "uint256"
        },
        {
          "internalType": "uint256",
          "name": "offset",
          "type": "uint256"
        }
      ],
      "stateMutability": "pure",
      "type": "function"
    },
    {
      "inputs": [
        {
          "internalType": "bytes",
          "name": "_bytes",
          "type": "bytes"
        },
        {
          "internalType": "uint256",
          "name": "_start",
          "type": "uint256"
        }
      ],
      "name": "readUint32",
      "outputs": [
        {
          "internalType": "uint32",
          "name": "readValue",
          "type": "uint32"
        },
        {
          "internalType": "uint256",
          "name": "offset",
          "type": "uint256"
        }
      ],
      "stateMutability": "pure",
      "type": "function"
    }
  ],
  "bytecode": "0x608060405234801561001057600080fd5b5061022d806100206000396000f3fe608060405234801561001057600080fd5b506004361061004c5760003560e01c806369c76df214610051578063af500fb714610085578063e02da32714610085578063f0e9da23146100ad575b600080fd5b61006461005f366004610142565b6100df565b6040805163ffffffff90931683526020830191909152015b60405180910390f35b610098610093366004610142565b610100565b6040805192835260208301919091520161007c565b6100c06100bb366004610142565b610116565b604080516001600160a01b03909316835260208301919091520161007c565b6000806100f58484600491810182015192910190565b915091509250929050565b6000806100f58484602091810182015192910190565b6000806100f58484601491810182015192910190565b634e487b7160e01b600052604160045260246000fd5b6000806040838503121561015557600080fd5b823567ffffffffffffffff8082111561016d57600080fd5b818501915085601f83011261018157600080fd5b8135818111156101935761019361012c565b604051601f8201601f19908116603f011681019083821181831017156101bb576101bb61012c565b816040528281528860208487010111156101d457600080fd5b82602086016020830137600060209382018401529896909101359650505050505056fea2646970667358221220cf20fa4d144345076f7ebc9dfa3179daa5716de5da77045e90ec9b502ee13e5964736f6c63430008110033",
  "linkReferences": {},
  "deployedLinkReferences": {}
}